{"abi":[{"type":"constructor","inputs":[{"name":"GARP_","type":"address","internalType":"address"},{"name":"defaultOwner","type":"address","internalType":"address"}],"stateMutability":"payable"},{"type":"function","name":"EXPIRE_CALLER_REWARD","inputs":[],"outputs":[{"name":"","type":"uint256","internalType":"uint256"}],"stateMutability":"view"},{"type":"function","name":"EXPIRE_CALLER_REWARD_DENOMINATOR","inputs":[],"outputs":[{"name":"","type":"uint256","internalType":"uint256"}],"stateMutability":"view"},{"type":"function","name":"GARP","inputs":[],"outputs":[{"name":"","type":"address","internalType":"contract IIncentivizedMessageEscrow"}],"stateMutability":"view"},{"type":"function","name":"UNDERWRITING_COLLATERAL","inputs":[],"outputs":[{"name":"","type":"uint256","internalType":"uint256"}],"stateMutability":"view"},{"type":"function","name":"UNDERWRITING_COLLATERAL_DENOMINATOR","inputs":[],"outputs":[{"name":"","type":"uint256","internalType":"uint256"}],"stateMutability":"view"},{"type":"function","name":"cancelOwnershipHandover","inputs":[],"outputs":[],"stateMutability":"payable"},{"type":"function","name":"chainIdentifierToDestinationAddress","inputs":[{"name":"","type":"bytes32","internalType":"bytes32"}],"outputs":[{"name":"","type":"bytes","internalType":"bytes"}],"stateMutability":"view"},{"type":"function","name":"completeOwnershipHandover","inputs":[{"name":"pendingOwner","type":"address","internalType":"address"}],"outputs":[],"stateMutability":"payable"},{"type":"function","name":"connectNewChain","inputs":[{"name":"chainIdentifier","type":"bytes32","internalType":"bytes32"},{"name":"remoteCCI","type":"bytes","internalType":"bytes"},{"name":"remoteGARP","type":"bytes","internalType":"bytes"}],"outputs":[],"stateMutability":"nonpayable"},{"type":"function","name":"convertEVMTo65","inputs":[{"name":"evmAddress","type":"address","internalType":"address"}],"outputs":[{"name":"","type":"bytes","internalType":"bytes"}],"stateMutability":"pure"},{"type":"function","name":"estimateAdditionalCost","inputs":[],"outputs":[{"name":"asset","type":"address","internalType":"address"},{"name":"amount","type":"uint256","internalType":"uint256"}],"stateMutability":"view"},{"type":"function","name":"expireUnderwrite","inputs":[{"name":"targetVault","type":"address","internalType":"address"},{"name":"toAsset","type":"address","internalType":"address"},{"name":"U","type":"uint256","internalType":"uint256"},{"name":"minOut","type":"uint256","internalType":"uint256"},{"name":"toAccount","type":"address","internalType":"address"},{"name":"underwriteIncentiveX16","type":"uint16","internalType":"uint16"},{"name":"cdata","type":"bytes","internalType":"bytes"}],"outputs":[],"stateMutability":"nonpayable"},{"type":"function","name":"getUnderwriteIdentifier","inputs":[{"name":"targetVault","type":"address","internalType":"address"},{"name":"toAsset","type":"address","internalType":"address"},{"name":"U","type":"uint256","internalType":"uint256"},{"name":"minOut","type":"uint256","internalType":"uint256"},{"name":"toAccount","type":"address","internalType":"address"},{"name":"underwriteIncentiveX16","type":"uint16","internalType":"uint16"},{"name":"cdata","type":"bytes","internalType":"bytes"}],"outputs":[{"name":"identifier","type":"bytes32","internalType":"bytes32"}],"stateMutability":"pure"},{"type":"function","name":"maxUnderwritingDuration","inputs":[],"outputs":[{"name":"","type":"uint256","internalType":"uint256"}],"stateMutability":"view"},{"type":"function","name":"minGasFor","inputs":[{"name":"","type":"bytes32","internalType":"bytes32"}],"outputs":[{"name":"","type":"uint48","internalType":"uint48"}],"stateMutability":"view"},{"type":"function","name":"owner","inputs":[],"outputs":[{"name":"result","type":"address","internalType":"address"}],"stateMutability":"view"},{"type":"function","name":"ownershipHandoverExpiresAt","inputs":[{"name":"pendingOwner","type":"address","internalType":"address"}],"outputs":[{"name":"result","type":"uint256","internalType":"uint256"}],"stateMutability":"view"},{"type":"function","name":"receiveAck","inputs":[{"name":"destinationIdentifier","type":"bytes32","internalType":"bytes32"},{"name":"","type":"bytes32","internalType":"bytes32"},{"name":"acknowledgement","type":"bytes","internalType":"bytes"}],"outputs":[],"stateMutability":"nonpayable"},{"type":"function","name":"receiveMessage","inputs":[{"name":"sourceIdentifier","type":"bytes32","internalType":"bytes32"},{"name":"","type":"bytes32","internalType":"bytes32"},{"name":"fromApplication","type":"bytes","internalType":"bytes"},{"name":"message","type":"bytes","internalType":"bytes"}],"outputs":[{"name":"acknowledgement","type":"bytes","internalType":"bytes"}],"stateMutability":"nonpayable"},{"type":"function","name":"renounceOwnership","inputs":[],"outputs":[],"stateMutability":"payable"},{"type":"function","name":"requestOwnershipHandover","inputs":[],"outputs":[],"stateMutability":"payable"},{"type":"function","name":"sendCrossChainAsset","inputs":[{"name":"routeDescription","type":"tuple","internalType":"struct ICatalystV1Structs.RouteDescription","components":[{"name":"chainIdentifier","type":"bytes32","internalType":"bytes32"},{"name":"toVault","type":"bytes","internalType":"bytes"},{"name":"toAccount","type":"bytes","internalType":"bytes"},{"name":"incentive","type":"tuple","internalType":"struct IMessageEscrowStructs.IncentiveDescription","components":[{"name":"maxGasDelivery","type":"uint48","internalType":"uint48"},{"name":"maxGasAck","type":"uint48","internalType":"uint48"},{"name":"refundGasTo","type":"address","internalType":"address"},{"name":"priceOfDeliveryGas","type":"uint96","internalType":"uint96"},{"name":"priceOfAckGas","type":"uint96","internalType":"uint96"},{"name":"targetDelta","type":"uint64","internalType":"uint64"}]},{"name":"deadline","type":"uint64","internalType":"uint64"}]},{"name":"toAssetIndex","type":"uint8","internalType":"uint8"},{"name":"U","type":"uint256","internalType":"uint256"},{"name":"minOut","type":"uint256","internalType":"uint256"},{"name":"fromAmount","type":"uint256","internalType":"uint256"},{"name":"fromAsset","type":"address","internalType":"address"},{"name":"underwriteIncentiveX16","type":"uint16","internalType":"uint16"},{"name":"calldata_","type":"bytes","internalType":"bytes"}],"outputs":[],"stateMutability":"payable"},{"type":"function","name":"sendCrossChainLiquidity","inputs":[{"name":"routeDescription","type":"tuple","internalType":"struct ICatalystV1Structs.RouteDescription","components":[{"name":"chainIdentifier","type":"bytes32","internalType":"bytes32"},{"name":"toVault","type":"bytes","internalType":"bytes"},{"name":"toAccount","type":"bytes","internalType":"bytes"},{"name":"incentive","type":"tuple","internalType":"struct IMessageEscrowStructs.IncentiveDescription","components":[{"name":"maxGasDelivery","type":"uint48","internalType":"uint48"},{"name":"maxGasAck","type":"uint48","internalType":"uint48"},{"name":"refundGasTo","type":"address","internalType":"address"},{"name":"priceOfDeliveryGas","type":"uint96","internalType":"uint96"},{"name":"priceOfAckGas","type":"uint96","internalType":"uint96"},{"name":"targetDelta","type":"uint64","internalType":"uint64"}]},{"name":"deadline","type":"uint64","internalType":"uint64"}]},{"name":"U","type":"uint256","internalType":"uint256"},{"name":"minOut","type":"uint256[2]","internalType":"uint256[2]"},{"name":"fromAmount","type":"uint256","internalType":"uint256"},{"name":"calldata_","type":"bytes","internalType":"bytes"}],"outputs":[],"stateMutability":"payable"},{"type":"function","name":"setMaxUnderwritingDuration","inputs":[{"name":"newMaxUnderwriteDuration","type":"uint256","internalType":"uint256"}],"outputs":[],"stateMutability":"nonpayable"},{"type":"function","name":"setMinGasFor","inputs":[{"name":"chainIdentifier","type":"bytes32","internalType":"bytes32"},{"name":"minGas","type":"uint48","internalType":"uint48"}],"outputs":[],"stateMutability":"nonpayable"},{"type":"function","name":"thisBytes65","inputs":[],"outputs":[{"name":"","type":"bytes","internalType":"bytes"}],"stateMutability":"view"},{"type":"function","name":"transferOwnership","inputs":[{"name":"newOwner","type":"address","internalType":"address"}],"outputs":[],"stateMutability":"payable"},{"type":"function","name":"underwrite","inputs":[{"name":"targetVault","type":"address","internalType":"address"},{"name":"toAsset","type":"address","internalType":"address"},{"name":"U","type":"uint256","internalType":"uint256"},{"name":"minOut","type":"uint256","internalType":"uint256"},{"name":"toAccount","type":"address","internalType":"address"},{"name":"underwriteIncentiveX16","type":"uint16","internalType":"uint16"},{"name":"cdata","type":"bytes","internalType":"bytes"}],"outputs":[{"name":"identifier","type":"bytes32","internalType":"bytes32"}],"stateMutability":"nonpayable"},{"type":"function","name":"underwriteAndCheckConnection","inputs":[{"name":"sourceIdentifier","type":"bytes32","internalType":"bytes32"},{"name":"fromVault","type":"bytes","internalType":"bytes"},{"name":"targetVault","type":"address","internalType":"address"},{"name":"toAsset","type":"address","internalType":"address"},{"name":"U","type":"uint256","internalType":"uint256"},{"name":"minOut","type":"uint256","internalType":"uint256"},{"name":"toAccount","type":"address","internalType":"address"},{"name":"underwriteIncentiveX16","type":"uint16","internalType":"uint16"},{"name":"cdata","type":"bytes","internalType":"bytes"}],"outputs":[],"stateMutability":"nonpayable"},{"type":"function","name":"underwritingStorage","inputs":[{"name":"","type":"bytes32","internalType":"bytes32"}],"outputs":[{"name":"tokens","type":"uint256","internalType":"uint256"},{"name":"refundTo","type":"address","internalType":"address"},{"name":"expiry","type":"uint96","internalType":"uint96"}],"stateMutability":"view"},{"type":"event","name":"ExpireUnderwrite","inputs":[{"name":"identifier","type":"bytes32","indexed":true,"internalType":"bytes32"},{"name":"expirer","type":"address","indexed":false,"internalType":"address"},{"name":"reward","type":"uint256","indexed":false,"internalType":"uint256"}],"anonymous":false},{"type":"event","name":"FulfillUnderwrite","inputs":[{"name":"identifier","type":"bytes32","indexed":true,"internalType":"bytes32"}],"anonymous":false},{"type":"event","name":"MaxUnderwriteDuration","inputs":[{"name":"newMaxUnderwriteDuration","type":"uint256","indexed":false,"internalType":"uint256"}],"anonymous":false},{"type":"event","name":"MinGasFor","inputs":[{"name":"identifier","type":"bytes32","indexed":false,"internalType":"bytes32"},{"name":"minGas","type":"uint48","indexed":false,"internalType":"uint48"}],"anonymous":false},{"type":"event","name":"OwnershipHandoverCanceled","inputs":[{"name":"pendingOwner","type":"address","indexed":true,"internalType":"address"}],"anonymous":false},{"type":"event","name":"OwnershipHandoverRequested","inputs":[{"name":"pendingOwner","type":"address","indexed":true,"internalType":"address"}],"anonymous":false},{"type":"event","name":"OwnershipTransferred","inputs":[{"name":"oldOwner","type":"address","indexed":true,"internalType":"address"},{"name":"newOwner","type":"address","indexed":true,"internalType":"address"}],"anonymous":false},{"type":"event","name":"RemoteImplementationSet","inputs":[{"name":"chainIdentifier","type":"bytes32","indexed":false,"internalType":"bytes32"},{"name":"remoteCCI","type":"bytes","indexed":false,"internalType":"bytes"},{"name":"remoteGARP","type":"bytes","indexed":false,"internalType":"bytes"}],"anonymous":false},{"type":"event","name":"SwapFailed","inputs":[{"name":"error","type":"bytes1","indexed":false,"internalType":"bytes1"}],"anonymous":false},{"type":"event","name":"SwapUnderwritten","inputs":[{"name":"identifier","type":"bytes32","indexed":true,"internalType":"bytes32"},{"name":"underwriter","type":"address","indexed":true,"internalType":"address"},{"name":"expiry","type":"uint96","indexed":false,"internalType":"uint96"},{"name":"targetVault","type":"address","indexed":false,"internalType":"address"},{"name":"toAsset","type":"address","indexed":false,"internalType":"address"},{"name":"U","type":"uint256","indexed":false,"internalType":"uint256"},{"name":"toAccount","type":"address","indexed":false,"internalType":"address"},{"name":"outAmount","type":"uint256","indexed":false,"internalType":"uint256"}],"anonymous":false},{"type":"error","name":"AlreadyInitialized","inputs":[]},{"type":"error","name":"ChainAlreadySetup","inputs":[]},{"type":"error","name":"InvalidAddress","inputs":[]},{"type":"error","name":"InvalidBytes65Address","inputs":[]},{"type":"error","name":"InvalidCaller","inputs":[]},{"type":"error","name":"InvalidContext","inputs":[{"name":"context","type":"bytes1","internalType":"bytes1"}]},{"type":"error","name":"InvalidSourceApplication","inputs":[]},{"type":"error","name":"MaxUnderwriteDurationTooLong","inputs":[]},{"type":"error","name":"MaxUnderwriteDurationTooShort","inputs":[]},{"type":"error","name":"NewOwnerIsZeroAddress","inputs":[]},{"type":"error","name":"NoHandoverRequest","inputs":[]},{"type":"error","name":"NoVaultConnection","inputs":[]},{"type":"error","name":"NotEnoughIncentives","inputs":[{"name":"expected","type":"uint256","internalType":"uint256"},{"name":"actual","type":"uint256","internalType":"uint256"}]},{"type":"error","name":"SwapAlreadyUnderwritten","inputs":[]},{"type":"error","name":"SwapRecentlyUnderwritten","inputs":[]},{"type":"error","name":"Unauthorized","inputs":[]},{"type":"error","name":"UnderwriteDoesNotExist","inputs":[{"name":"identifier","type":"bytes32","internalType":"bytes32"}]},{"type":"error","name":"UnderwriteNotExpired","inputs":[{"name":"blocksUnitilExpiry","type":"uint256","internalType":"uint256"}]}],"bytecode":{"object":"0x60a0601f620037d438819003918201601f19168301916001600160401b038311848410176200011857808492604094855283398101031262000113576200005460206200004c836200012e565b92016200012e565b613840600281905590916001600160a01b039081169190821562000113577f88e95e1ea5dc9ffb42b44903f6dc9ba92e46f0ae1931bd6e6cbeecdf3d6b9a02936020936080521680638b78c6d8195560007f8be0079c531659141344cd1fd0a4f28419497f9722a3daafe3b4186f6b6457e08180a3604051908152a16040516136909081620001448239608051818181610b2301528181610d3001528181611088015281816112e001528181611375015281816118b80152611a440152f35b600080fd5b634e487b7160e01b600052604160045260246000fd5b51906001600160a01b0382168203620001135756fe60c060408181526004918236101561001657600080fd5b600092833560e01c91826311cbf805146119fa575081631e2b8990146119dd5781632569296214611992578163318987c4146116195781634f37a457146115e95781635330a5de1461153657816354d1f13d146114f0578163715018a61461148f578163898e68ad146114735781638da5cb5b1461141f57816392006e731461132357816394aaf73f14611304578163989e34b3146112b3578163ac23728114610f2a578163b40f969a14610f2f578163ba3c99e614610f2a578163bf09469414610f05578163ca9b7b2f14610e72578163d00689b614610cc5578163d6512967146107f4578163d9450187146107a1578163daf1e16714610782578163dbaed76b146105ed578163dd4aeedd146103b8578163e5a778351461038c578163e73ae7641461033c578163ea901f1a146102e8578163f04e283e1461023c578163f2fde38b146101a5575063fee81cf41461016f57600080fd5b346101a15760206003193601126101a15760209161018b611ae8565b9063389a75e1600c525281600c20549051908152f35b5080fd5b839060206003193601126101a1576101bb611ae8565b906101c4612a95565b8160601b15610231575073ffffffffffffffffffffffffffffffffffffffff167fffffffffffffffffffffffffffffffffffffffffffffffffffffffff748739278181547f8be0079c531659141344cd1fd0a4f28419497f9722a3daafe3b4186f6b6457e0600080a35580f35b637448fbae8352601cfd5b8360206003193601126102e557610251611ae8565b610259612a95565b63389a75e1600c528082526020600c2092835442116102da57508173ffffffffffffffffffffffffffffffffffffffff929355167fffffffffffffffffffffffffffffffffffffffffffffffffffffffff748739278181547f8be0079c531659141344cd1fd0a4f28419497f9722a3daafe3b4186f6b6457e0600080a35580f35b636f5e88188352601cfd5b80fd5b5050346101a15760206003193601126101a1576103389061032573ffffffffffffffffffffffffffffffffffffffff61031f611ae8565b16611f6a565b9051918291602083526020830190611bc5565b0390f35b9050346103885760206003193601126103885790610376816103389461036f943581528060205220825193848092611c5b565b0383611d6e565b51918291602083526020830190611bc5565b8280fd5b5050346101a1576020906103b16103a236611b0b565b969590959491949392936121a3565b9051908152f35b91905034610388576103df906103cd36611b0b565b928699948684979c988a959495612acd565b9586885260036020528488209260018401549373ffffffffffffffffffffffffffffffffffffffff908186169081156105be57908b94939291549660a01c903303610540575b508984526003602052600060018986208281550155808716803b1561053c578492836084928d948c5197889687957fb9ff629b00000000000000000000000000000000000000000000000000000000875286015260248501528a60448501528d1660648401525af1801561053257610512575b50507f5d002c935f79d7b578b7c23b1101d4508bb3bd36e5b53c2aa00263ee5ac9f0de9461ffff9361050c95936104f69360236103e897889216830260101c920204019461015e86020480956104ef823386612c5b565b0391612c5b565b5133815260208101919091529081906040820190565b0390a280f35b61051f9095939495611d0f565b61052e57863894939294610498565b8680fd5b86513d84823e3d90fd5b8480fd5b909192935043811161055657908a939291610425565b8288914381039081116105905760249251917f62141db5000000000000000000000000000000000000000000000000000000008352820152fd5b6011827f4e487b71000000000000000000000000000000000000000000000000000000006000525260246000fd5b6024848c8b51917fae029d69000000000000000000000000000000000000000000000000000000008352820152fd5b8383346101a1576101206003193601126101a15767ffffffffffffffff60243581811161077e576106219036908601611a9d565b91906044359073ffffffffffffffffffffffffffffffffffffffff9182811695868203610779576064359284841684036107795760c43594851685036107795760e4359561ffff871687036107795761010435908111610775576106d49161068e8c602093369101611a9d565b9a90998d8651958694859384937f66ae79e6000000000000000000000000000000000000000000000000000000008552803590850152896024850152604484019161211d565b03915afa90811561076b57899161072c575b5015610704575061070096975060a43591608435916121a3565b5080f35b8890517fea66ca6d000000000000000000000000000000000000000000000000000000008152fd5b90506020813d602011610763575b8161074760209383611d6e565b8101031261075f5751801515810361075f578a6106e6565b8880fd5b3d915061073a565b82513d8b823e3d90fd5b8980fd5b600080fd5b8380fd5b5050346101a157816003193601126101a1576103389061032530611f6a565b9050346103885760206003193601126103885760609282913581526003602052209060018254920154815192835273ffffffffffffffffffffffffffffffffffffffff8116602084015260a01c90820152f35b6003198484610100368401126101a15783359367ffffffffffffffff80861161077e5761014086830195873603011261077e576024359560ff8716870361053c5760a4359273ffffffffffffffffffffffffffffffffffffffff928385168095036107795760c4359061ffff821682036107795760e435908111610cc157908899610886899a98999336908601611a9d565b9290918a6108b360648901809c3597888152600160205265ffffffffffff80948192205416928392611eab565b1610610cb35750808c8e8080526001602052205416908160848a01916108d883611eab565b1610610c6157505060e487016108ed81611ebe565b600b3a023a8104600b143a151715610c3557600a900491906bffffffffffffffffffffffff168211610bd9575050908c9291604161092f60448a018096611f19565b905003610bb1578d604161094760248b018093611f19565b905003610b8957918e8e9f928e9f979695939e809e9f889661096891611f19565b976109739194611f19565b90818984519a8b976020890160805260805137860191602083018d8152370191604435602084015260f81b7fff00000000000000000000000000000000000000000000000000000000000000169082015260643560418201526084356061820152036061810185526081016109e89085611d6e565b7fffff00000000000000000000000000000000000000000000000000000000000080918d519c888e9960208b01527f1400000000000000000000000000000000000000000000000000000000000000978860218c01528160228c01523360428c01525160628b018160805191610a5d92611ba2565b8a01976062890152606388015260838701524360e01b7fffffffff000000000000000000000000000000000000000000000000000000001660a387015260f01b1660a78501528260f01b1660a984015260ab830137018a60ab82015203608b8101865260ab01610acd9086611d6e565b808952886020528589209261012401610ae590611fc1565b8651978896879586957f65a686de000000000000000000000000000000000000000000000000000000008752860194610b1d95612005565b039134907f0000000000000000000000000000000000000000000000000000000000000000165af18015610b7d57610b53578280f35b81610b7292903d10610b76575b610b6a8183611d6e565b810190611fd6565b8280f35b503d610b60565b505051903d90823e3d90fd5b878d517fbbcd8eb1000000000000000000000000000000000000000000000000000000008152fd5b868c517fbbcd8eb1000000000000000000000000000000000000000000000000000000008152fd5b610c318d610be78a93611ebe565b90519384937f6de7824600000000000000000000000000000000000000000000000000000000855284019092916bffffffffffffffffffffffff6020916040840195845216910152565b0390fd5b60248f60118b7f4e487b7100000000000000000000000000000000000000000000000000000000835252fd5b610c318d610c6f8a93611eab565b90517f6de7824600000000000000000000000000000000000000000000000000000000815265ffffffffffff94851693810193845293166020830152829160400190565b87610c318e610c6f8f611eab565b8780fd5b9050346103885760806003193601126103885780359267ffffffffffffffff9160443583811161038857610cfc9036908301611a9d565b95909360643590811161077e57610d169036908401611a9d565b92909473ffffffffffffffffffffffffffffffffffffffff7f0000000000000000000000000000000000000000000000000000000000000000163303610e4a57610d5f8861215c565b610d6b88519182611d6e565b888152602098898201923682820111610cc1578188928c92863783010152519020828552848852610da6610dad888720895192838092611c5b565b0382611d6e565b88815191012003610e24577fff000000000000000000000000000000000000000000000000000000000000008761033888610e1560218a8a8a80610df281858e612b7c565b87519a16898b015289938585013782019083820152036001810187520185611d6e565b51928284938452830190611bc5565b85517e3923e0000000000000000000000000000000000000000000000000000000008152fd5b5085517f48f5c3ed000000000000000000000000000000000000000000000000000000008152fd5b90503461038857816003193601126103885735906024359165ffffffffffff8316809303610779577f0f610a3dcd6165f6c2336e534655b0895a80b36322401c17b5bd0eea058ed1b992610ec4612a95565b8185526001602052828520817fffffffffffffffffffffffffffffffffffffffffffffffffffff00000000000082541617905582519182526020820152a180f35b5050346101a1576020906103b1610f1b36611b0b565b96959095949194939293612acd565b611acb565b8383346101a15760606003193601126101a1578235906024359367ffffffffffffffff9485811161053c57610f679036908301611a9d565b91909360443587811161052e57610f819036908401611a9d565b939095610f8c612a95565b6041820361128b57828852602091888352610fa9878a2054611c08565b6112635783895288835286892099811161123757610fc78a54611c08565b99601f8b116111f4575b89809b50979899601f8311600114611128576060938361106e937f4bdc885fecec9b48853a8df98337140d59c2ebd57b0386bd50133873b969a3319795611060948d9161111d575b508260011b907fffffffffffffffffffffffffffffffffffffffffffffffffffffffffffffffff8460031b1c19161790555b8b51958695898752860152606085019161211d565b8281038a840152878b61211d565b0390a173ffffffffffffffffffffffffffffffffffffffff7f00000000000000000000000000000000000000000000000000000000000000001691823b1561053c5784906110f48751988996879586947fffbeacc7000000000000000000000000000000000000000000000000000000008652850152896024850152604484019161211d565b03925af19081156111145750611108575080f35b61111190611d0f565b80f35b513d84823e3d90fd5b905083013538611019565b818952848920907fffffffffffffffffffffffffffffffffffffffffffffffffffffffffffffffe084168a5b8181106111da57509361106e936110609360609793837f4bdc885fecec9b48853a8df98337140d59c2ebd57b0386bd50133873b969a3319a98106111a2575b5050600182811b01905561104b565b7fffffffffffffffffffffffffffffffffffffffffffffffffffffffffffffffff60f88560031b161c19908501351690558f80611193565b8287013584558e9b50600190930192918701918701611154565b808a52838a20601f830160051c81019b85841061122d575b601f0160051c019a5b8b81106112225750610fd1565b8a8155600101611215565b909b508b9061120c565b6024896041877f4e487b7100000000000000000000000000000000000000000000000000000000835252fd5b8487517fb8e35614000000000000000000000000000000000000000000000000000000008152fd5b8386517fbbcd8eb1000000000000000000000000000000000000000000000000000000008152fd5b5050346101a157816003193601126101a1576020905173ffffffffffffffffffffffffffffffffffffffff7f0000000000000000000000000000000000000000000000000000000000000000168152f35b5050346101a157816003193601126101a1576020906002549051908152f35b8383346101a157816003193601126101a15780805180947f92006e730000000000000000000000000000000000000000000000000000000082528173ffffffffffffffffffffffffffffffffffffffff7f0000000000000000000000000000000000000000000000000000000000000000165afa928315611414578280946113d1575b50505173ffffffffffffffffffffffffffffffffffffffff9190911681526020810191909152604090f35b91935091508282813d831161140d575b6113eb8183611d6e565b810103126102e557506103386020611402836120e3565b9201519290846113a6565b503d6113e1565b5051903d90823e3d90fd5b5050346101a157816003193601126101a15760209073ffffffffffffffffffffffffffffffffffffffff7fffffffffffffffffffffffffffffffffffffffffffffffffffffffff7487392754915191168152f35b5050346101a157816003193601126101a1576020905160238152f35b83806003193601126102e5576114a3612a95565b807fffffffffffffffffffffffffffffffffffffffffffffffffffffffff748739278181547f8be0079c531659141344cd1fd0a4f28419497f9722a3daafe3b4186f6b6457e08280a35580f35b83806003193601126102e55763389a75e1600c52338152806020600c2055337ffa7b8eab7da67f412cc9575ed43464468f9bfbae89d1675917346ca6d8fe3c928280a280f35b9190503461038857602060031936011261038857813591611555612a95565b61012c8311156115c25762062700831161159b5750816020917f88e95e1ea5dc9ffb42b44903f6dc9ba92e46f0ae1931bd6e6cbeecdf3d6b9a029360025551908152a180f35b90517f3f6368aa000000000000000000000000000000000000000000000000000000008152fd5b90517f6229dcd0000000000000000000000000000000000000000000000000000000008152fd5b905034610388576020600319360112610388578160209365ffffffffffff92358152600185522054169051908152f35b600319915060c03683011261077e5780359067ffffffffffffffff80831161198e5761014083830194843603011261198e573660841161198e5760a43590811161198e5761166a9036908301611a9d565b606484019185358852600160205265ffffffffffff80888a205416808261169087611eab565b16106119805750888052600160205280888a205416908160848801916116b583611eab565b161061197257505060e485016116ca81611ebe565b600b3a023a8104600b143a15171561194657600a900491906bffffffffffffffffffffffff1682116119385750506044850160416117088289611f19565b9050036119105760248601906041611720838a611f19565b9050036118e85783899796959361189e9561184e948d60a7958c61175b8f61175161174a33611f6a565b9682611f19565b9485939192611f19565b96879591945160a0527f0100000000000000000000000000000000000000000000000000000000000000602060a05101526117a2815180926020602160a051019101611ba2565b60a0510191602183013701926021840190815237019160243560218401526044356041840152606435606184015260843560818401527fffffffff000000000000000000000000000000000000000000000000000000004360e01b1660a18401527fffff0000000000000000000000000000000000000000000000000000000000008260f01b1660a584015284830137018a8282015260a05190036087810160a051520160a051611d6e565b8535885287602052611866610124868a209501611fc1565b90855196879586957f65a686de00000000000000000000000000000000000000000000000000000000875260a0519235908701612005565b03813473ffffffffffffffffffffffffffffffffffffffff7f0000000000000000000000000000000000000000000000000000000000000000165af18015610b7d57610b53578280f35b8589517fbbcd8eb1000000000000000000000000000000000000000000000000000000008152fd5b8488517fbbcd8eb1000000000000000000000000000000000000000000000000000000008152fd5b610c3189610be78893611ebe565b60248b6011897f4e487b7100000000000000000000000000000000000000000000000000000000835252fd5b610c3189610c6f8893611eab565b85610c318a610c6f88611eab565b8580fd5b83806003193601126102e55763389a75e1600c523381526202a30042016020600c2055337fdbf36a107da19e49527a7176a1babf963b4b0ff8cde35ee35d6cd8f1f9ac7e1d8280a280f35b5050346101a157816003193601126101a1576020905161015e8152f35b8490346101a15760606003193601126101a15760443567ffffffffffffffff811161038857611a2c9036908501611a9d565b9173ffffffffffffffffffffffffffffffffffffffff7f0000000000000000000000000000000000000000000000000000000000000000163303611a765750611111929335611daf565b807f48f5c3ed00000000000000000000000000000000000000000000000000000000869252fd5b9181601f840112156107795782359167ffffffffffffffff8311610779576020838186019501011161077957565b346107795760006003193601126107795760206040516103e88152f35b6004359073ffffffffffffffffffffffffffffffffffffffff8216820361077957565b9060e06003198301126107795773ffffffffffffffffffffffffffffffffffffffff91600435838116810361077957926024358181168103610779579260443592606435926084359081168103610779579160a43561ffff81168103610779579160c4359067ffffffffffffffff821161077957611b8b91600401611a9d565b9091565b359065ffffffffffff8216820361077957565b60005b838110611bb55750506000910152565b8181015183820152602001611ba5565b907fffffffffffffffffffffffffffffffffffffffffffffffffffffffffffffffe0601f602093611c0181518092818752878088019101611ba2565b0116010190565b90600182811c92168015611c51575b6020831014611c2257565b7f4e487b7100000000000000000000000000000000000000000000000000000000600052602260045260246000fd5b91607f1691611c17565b805460009392611c6a82611c08565b91828252602093600191600181169081600014611cd25750600114611c91575b5050505050565b90939495506000929192528360002092846000945b838610611cbe57505050500101903880808080611c8a565b805485870183015294019385908201611ca6565b7fffffffffffffffffffffffffffffffffffffffffffffffffffffffffffffff00168685015250505090151560051b010191503880808080611c8a565b67ffffffffffffffff8111611d2357604052565b7f4e487b7100000000000000000000000000000000000000000000000000000000600052604160045260246000fd5b6040810190811067ffffffffffffffff821117611d2357604052565b90601f7fffffffffffffffffffffffffffffffffffffffffffffffffffffffffffffffe0910116810190811067ffffffffffffffff821117611d2357604052565b8215611e7c577fff0000000000000000000000000000000000000000000000000000000000000082351680611e195750826001116107795760017fffffffffffffffffffffffffffffffffffffffffffffffffffffffffffffffff611e1794019201906128dc565b565b60207fe3d0bbb47fe45a6223645bd4352bb4d9262d1acaa2c0ffd75fa050fca0439b7f91604051908152a1826001116107795760017fffffffffffffffffffffffffffffffffffffffffffffffffffffffffffffffff611e179401920190612709565b7f4e487b7100000000000000000000000000000000000000000000000000000000600052603260045260246000fd5b3565ffffffffffff811681036107795790565b356bffffffffffffffffffffffff811681036107795790565b81810292918115918404141715611eea57565b7f4e487b7100000000000000000000000000000000000000000000000000000000600052601160045260246000fd5b9035907fffffffffffffffffffffffffffffffffffffffffffffffffffffffffffffffe181360301821215610779570180359067ffffffffffffffff82116107795760200191813603831361077957565b90604051917f14000000000000000000000000000000000000000000000000000000000000006020840152600060218401526041830152604182526080820182811067ffffffffffffffff821117611d2357604052565b3567ffffffffffffffff811681036107795790565b9190826040910312610779576020825192015190565b35906bffffffffffffffffffffffff8216820361077957565b93959492906120349261202691610140908752806020880152860190611c5b565b908482036040860152611bc5565b9365ffffffffffff8061204683611b8f565b16606085015261205860208301611b8f565b16608084015260408101359073ffffffffffffffffffffffffffffffffffffffff82168092036107795760a0918285015261209560608201611fec565b6bffffffffffffffffffffffff80911660c08601526120b660808301611fec565b1660e085015201359067ffffffffffffffff90818316809303610779576101209261010085015216910152565b519073ffffffffffffffffffffffffffffffffffffffff8216820361077957565b9060416080928183526020830137600060618201520190565b601f82602094937fffffffffffffffffffffffffffffffffffffffffffffffffffffffffffffffe0938186528686013760008582860101520116010190565b67ffffffffffffffff8111611d2357601f017fffffffffffffffffffffffffffffffffffffffffffffffffffffffffffffffe01660200190565b91908201809211611eea57565b90939297969594956121bb818789878d888b89612acd565b98896000526003602052604060002097600189015460a01c806125a3575b506201000091808060101b04831481151715611eea578261ffff8316810311611eea5761ffff8216831461257457604051927f119f8e680000000000000000000000000000000000000000000000000000000084528c600485015273ffffffffffffffffffffffffffffffffffffffff8916602485015286604485015261ffff831690039060101b046064830152602082608481600073ffffffffffffffffffffffffffffffffffffffff89165af19182156124fc57600092612540575b50600189015473ffffffffffffffffffffffffffffffffffffffff81166125165761230c9060016bffffffffffffffffffffffff6122d760025443612196565b868e551660a081901b7fffffffffffffffffffffffff000000000000000000000000000000000000000016331791909c015550565b61040b808302908382041483151715611eea576103e86040519104606052306040523360601b602c526f23b872dd000000000000000000000000600c52602060006064601c828c5af13d1560016000511417161561250857600060605260405261237a9061ffff1682611ed7565b60101c90039561238b878688612c5b565b8160021161077957803560f01c9182612406575b50505073ffffffffffffffffffffffffffffffffffffffff93848092604051988952166020880152166040860152606085015216608083015260a0820152827fb2b54dbcb6f6e94446d5dc07448faa5aff2a1fa2ef8280125cbc19a9b9514c4360c03393a3565b806016979394971161077957600282013560601c9360020161ffff8111611eea5761ffff16908160161161077957811161077957833b15610779576124b393600092838a604051978895869485937f5ea79f2600000000000000000000000000000000000000000000000000000000855260048501526060602485015260167fffffffffffffffffffffffffffffffffffffffffffffffffffffffffffffffea606486019301910161211d565b6001604483015203925af180156124fc5773ffffffffffffffffffffffffffffffffffffffff95869384926124ed575b509282965061239f565b6124f690611d0f565b386124e3565b6040513d6000823e3d90fd5b637939f4246000526004601cfd5b60046040517fd0c27c9f000000000000000000000000000000000000000000000000000000008152fd5b9091506020813d60201161256c575b8161255c60209383611d6e565b8101031261077957519038612297565b3d915061254f565b7f4e487b7100000000000000000000000000000000000000000000000000000000600052601260045260246000fd5b6bfffffffffffffffffffffffb811080612661575b15612623576bffffffffffffffffffffffff804316918282600483011610156125e6575b5050505b386121d9565b600319011611156125f9573880806125dc565b60046040517f695b3a94000000000000000000000000000000000000000000000000000000008152fd5b6bffffffffffffffffffffffff4316036125e05760046040517f695b3a94000000000000000000000000000000000000000000000000000000008152fd5b50600481116125b8565b9460a094604163ffffffff9599989473ffffffffffffffffffffffffffffffffffffffff94895260c060208a01528160c08a015260e089013760006101218801526101408701986040880152606087015216608085015216910152565b93604163ffffffff93608095989793875260a060208801528160a088015260c087013760006101018601526101208501966040860152606085015216910152565b90918015611e7c577fff00000000000000000000000000000000000000000000000000000000000000833516928160421161077957602e81013560601c8415612843577f010000000000000000000000000000000000000000000000000000000000000085146127a457602485604051907f9f7697910000000000000000000000000000000000000000000000000000000082526004820152fd5b90918093945060c411610779578260e4116107795761014492808411610779576101481161077957803b15610779576128299360008094604051968795869485937f16604f4f00000000000000000000000000000000000000000000000000000000855282013560e01c9161012481013591608360c4830135920190600487016126c8565b03925af180156124fc5761283a5750565b611e1790611d0f565b9093508160c493929311610779578260e41161077957826101251161077957610166928084116107795761016a1161077957803b15610779576128299360008094604051968795869485937f1fd1602b00000000000000000000000000000000000000000000000000000000855281013560e01c9161015282013560601c9161010581013591608360c48301359201906004880161266b565b90918015611e7c577fff00000000000000000000000000000000000000000000000000000000000000833516928160421161077957602e81013560601c84156129fc577f0100000000000000000000000000000000000000000000000000000000000000851461297757602485604051907f9f7697910000000000000000000000000000000000000000000000000000000082526004820152fd5b90918093945060c411610779578260e4116107795761014492808411610779576101481161077957803b15610779576128299360008094604051968795869485937feb80cd1100000000000000000000000000000000000000000000000000000000855282013560e01c9161012481013591608360c4830135920190600487016126c8565b9093508160c493929311610779578260e41161077957826101251161077957610166928084116107795761016a1161077957803b15610779576128299360008094604051968795869485937ff754fc3500000000000000000000000000000000000000000000000000000000855281013560e01c9161015282013560601c9161010581013591608360c48301359201906004880161266b565b7fffffffffffffffffffffffffffffffffffffffffffffffffffffffff74873927543303612abf57565b6382b429006000526004601cfd5b969391849396929591957fffffffffffffffffffffffffffffffffffffffff000000000000000000000000978892604051998a998160208c019d60601b168d5260601b1660348a01526048890152606888015260601b16608886015260f01b7fffff00000000000000000000000000000000000000000000000000000000000016609c850152609e8401378101609e81016000905203607e81018252609e01612b769082611d6e565b51902090565b91908115611e7c577fff00000000000000000000000000000000000000000000000000000000000000813516928260831015611e7c576014608383013560f81c03612c31578260a411610779576084820135612c31578260b0116107795760a482013560a01c612c31578315612c27577f0100000000000000000000000000000000000000000000000000000000000000809414612c1a5750505090565b612c249350612e15565b90565b612c249350612ca4565b60046040517fe6c4247b000000000000000000000000000000000000000000000000000000008152fd5b60109260209260145260345260446000938480936fa9059cbb00000000000000000000000082525af13d156001835114171615612c9757603452565b6390b8ec1890526004601cfd5b919081604211610779578160831161077957606f81013560601c61016c838111610779578360e41015611e7c57604051907f904e0a0100000000000000000000000000000000000000000000000000000000825260e484013560f81c6004830152602082602481865afa9182156124fc57600092612da9575b508460c411610779578460e4116107795784610105116107795785612d939361016a86013560f01c93612d8e60018801947ffffffffffffffffffffffffffffffffffffffffffffffffffffffffffffffe948a019089018760b08b013560601c60e58c013560c48d01358789612acd565b613075565b15612da057505050600090565b612c249261323d565b9091506020813d602011612ddd575b81612dc560209383611d6e565b8101031261077957612dd6906120e3565b9038612d1d565b3d9150612db8565b3d15612e10573d90612df68261215c565b91612e046040519384611d6e565b82523d6000602084013e565b606090565b906000928060421161077e578060831161077e578060c41161077e578060e41161077e576101049080821161053c5761012481811161198e576101449482861161052e5761014893838511610cc157906020929160405197889384937f34420dbd00000000000000000000000000000000000000000000000000000000855260048501526101006024850152612eb083850160018b01612104565b9260b08a013560601c604486015260c48a0135606486015260e48a0135608486015289013560a485015288013560c484015287013560e01c60e4830152038188606f88013560601c5af1859481613041575b50612f1c575050505050612c24612f17612de5565b6134d1565b61014a9181831161198e5783013560f01c9384612f3c575b505050505090565b61015e9180831161052e578385013560601c9386810180911161301457808411610cc1571161198e57823b1561198e57908580949392612fdc604051978896879586947f5ea79f260000000000000000000000000000000000000000000000000000000086526004860152606060248601527fffffffffffffffffffffffffffffffffffffffffffffffffffffffffffffffec606486019301910161211d565b82604483015203925af1801561300957612ffa575b80808080612f34565b61300390611d0f565b38612ff1565b6040513d84823e3d90fd5b6024887f4e487b710000000000000000000000000000000000000000000000000000000081526011600452fd5b9094506020813d60201161306d575b8161305d60209383611d6e565b8101031261198e57519338612f02565b3d9150613050565b94909293919360009486865260036020526040862093845492600186019273ffffffffffffffffffffffffffffffffffffffff938481541697881561322e578a905573ffffffffffffffffffffffffffffffffffffffff8a164360a01b7fffffffffffffffffffffffff000000000000000000000000000000000000000016179055831692833b1561075f5786898995604182968e96610144966040519a8b998a987fc86380d9000000000000000000000000000000000000000000000000000000008a5260048a015260248901528c6044890152166064870152608486015260c060a48601528160c486015260e4850137816101258401525af1801561322357613210575b506023810291818304602314821517156131e3577f8ff233d871d7b0eb7094811a82d2a3abe0a4a3ff0066b7f402fbdd5b88f023789594926103e86131cc6131dc969461ffff6131d6951690611ed7565b60101c9104612196565b91612c5b565b80a2600190565b6024867f4e487b710000000000000000000000000000000000000000000000000000000081526011600452fd5b61321c90959195611d0f565b933861317b565b6040513d88823e3d90fd5b50505050505050505050905090565b906000928060421161077e578060831161077e578060e4101561345a578060c41161077e578060e41161077e576101059281841161053c576101259082821161198e5761016683811161052e578361016a1161052e57906020929161332e60405197889485947f13193e6a000000000000000000000000000000000000000000000000000000008652600486015261012060248601526132e4610124860160018b01612104565b9160e48a013560f81c604487015260b08a013560601c606487015260c48a0135608487015260e58a013560a487015289013560c48601526003198583030160e48601528801612104565b9086013560e01c610104830152038187606f87013560601c5af1849381613426575b506133645750505050612c24612f17612de5565b61016e9080821161053c5761016c83013560f01c938461338657505050505090565b6101829180831161052e578385013560601c9386810180911161301457808411610cc1571161198e57823b1561198e57908580949392612fdc604051978896879586947f5ea79f260000000000000000000000000000000000000000000000000000000086526004860152606060248601527fffffffffffffffffffffffffffffffffffffffffffffffffffffffffffffffec606486019301910161211d565b9093506020813d602011613452575b8161344260209383611d6e565b8101031261053c57519238613350565b3d9150613435565b6024847f4e487b710000000000000000000000000000000000000000000000000000000081526032600452fd5b90602082519201517fffffffffffffffff0000000000000000000000000000000000000000000000009081811693600881106134c257505050565b60080360031b82901b16169150565b6134da90613487565b6135186040517f7c1e66d00000000000000000000000000000000000000000000000000000000060208201526004815261351381611d52565b613487565b7fffffffffffffffff0000000000000000000000000000000000000000000000009182169190811682146136345781816135816040517f24557f050000000000000000000000000000000000000000000000000000000060208201526004815261351381611d52565b161461360e576135c06040517f2c64c1b20000000000000000000000000000000000000000000000000000000060208201526004815261351381611d52565b16146135ea577f100000000000000000000000000000000000000000000000000000000000000090565b7f130000000000000000000000000000000000000000000000000000000000000090565b50507f120000000000000000000000000000000000000000000000000000000000000090565b50507f11000000000000000000000000000000000000000000000000000000000000009056fea264697066735822122068bc226de3afe423090d6d6738667555156f2a8bbdbb595e05adca8dacd60c4364736f6c63430008160033","linkReferences":{}},"methodIdentifiers":{"EXPIRE_CALLER_REWARD()":"1e2b8990","EXPIRE_CALLER_REWARD_DENOMINATOR()":"ba3c99e6","GARP()":"989e34b3","UNDERWRITING_COLLATERAL()":"898e68ad","UNDERWRITING_COLLATERAL_DENOMINATOR()":"ac237281","cancelOwnershipHandover()":"54d1f13d","chainIdentifierToDestinationAddress(bytes32)":"e73ae764","completeOwnershipHandover(address)":"f04e283e","connectNewChain(bytes32,bytes,bytes)":"b40f969a","convertEVMTo65(address)":"ea901f1a","estimateAdditionalCost()":"92006e73","expireUnderwrite(address,address,uint256,uint256,address,uint16,bytes)":"dd4aeedd","getUnderwriteIdentifier(address,address,uint256,uint256,address,uint16,bytes)":"bf094694","maxUnderwritingDuration()":"94aaf73f","minGasFor(bytes32)":"4f37a457","owner()":"8da5cb5b","ownershipHandoverExpiresAt(address)":"fee81cf4","receiveAck(bytes32,bytes32,bytes)":"11cbf805","receiveMessage(bytes32,bytes32,bytes,bytes)":"d00689b6","renounceOwnership()":"715018a6","requestOwnershipHandover()":"25692962","sendCrossChainAsset((bytes32,bytes,bytes,(uint48,uint48,address,uint96,uint96,uint64),uint64),uint8,uint256,uint256,uint256,address,uint16,bytes)":"d6512967","sendCrossChainLiquidity((bytes32,bytes,bytes,(uint48,uint48,address,uint96,uint96,uint64),uint64),uint256,uint256[2],uint256,bytes)":"318987c4","setMaxUnderwritingDuration(uint256)":"5330a5de","setMinGasFor(bytes32,uint48)":"ca9b7b2f","thisBytes65()":"daf1e167","transferOwnership(address)":"f2fde38b","underwrite(address,address,uint256,uint256,address,uint16,bytes)":"e5a77835","underwriteAndCheckConnection(bytes32,bytes,address,address,uint256,uint256,address,uint16,bytes)":"dbaed76b","underwritingStorage(bytes32)":"d9450187"},"id":57}