{"abi":[{"type":"constructor","inputs":[{"name":"defaultOwner","type":"address","internalType":"address"}],"stateMutability":"payable"},{"type":"function","name":"_defaultGovernanceFee","inputs":[],"outputs":[{"name":"","type":"uint64","internalType":"uint64"}],"stateMutability":"view"},{"type":"function","name":"_governanceFeeDestination","inputs":[],"outputs":[{"name":"","type":"address","internalType":"address"}],"stateMutability":"view"},{"type":"function","name":"cancelOwnershipHandover","inputs":[],"outputs":[],"stateMutability":"payable"},{"type":"function","name":"completeOwnershipHandover","inputs":[{"name":"pendingOwner","type":"address","internalType":"address"}],"outputs":[],"stateMutability":"payable"},{"type":"function","name":"deployVault","inputs":[{"name":"vaultTemplate","type":"address","internalType":"address"},{"name":"assets","type":"address[]","internalType":"address[]"},{"name":"init_balances","type":"uint256[]","internalType":"uint256[]"},{"name":"weights","type":"uint256[]","internalType":"uint256[]"},{"name":"amp","type":"uint64","internalType":"uint64"},{"name":"vaultFee","type":"uint64","internalType":"uint64"},{"name":"name","type":"string","internalType":"string"},{"name":"symbol","type":"string","internalType":"string"},{"name":"chainInterface","type":"address","internalType":"address"}],"outputs":[{"name":"vault","type":"address","internalType":"address"}],"stateMutability":"nonpayable"},{"type":"function","name":"isCreatedByFactory","inputs":[{"name":"","type":"address","internalType":"address"},{"name":"","type":"address","internalType":"address"}],"outputs":[{"name":"","type":"bool","internalType":"bool"}],"stateMutability":"view"},{"type":"function","name":"owner","inputs":[],"outputs":[{"name":"result","type":"address","internalType":"address"}],"stateMutability":"view"},{"type":"function","name":"ownershipHandoverExpiresAt","inputs":[{"name":"pendingOwner","type":"address","internalType":"address"}],"outputs":[{"name":"result","type":"uint256","internalType":"uint256"}],"stateMutability":"view"},{"type":"function","name":"renounceOwnership","inputs":[],"outputs":[],"stateMutability":"payable"},{"type":"function","name":"requestOwnershipHandover","inputs":[],"outputs":[],"stateMutability":"payable"},{"type":"function","name":"setDefaultGovernanceFee","inputs":[{"name":"fee","type":"uint64","internalType":"uint64"}],"outputs":[],"stateMutability":"nonpayable"},{"type":"function","name":"setGovernanceFeeDestination","inputs":[{"name":"feeDestination","type":"address","internalType":"address"}],"outputs":[],"stateMutability":"nonpayable"},{"type":"function","name":"transferOwnership","inputs":[{"name":"newOwner","type":"address","internalType":"address"}],"outputs":[],"stateMutability":"payable"},{"type":"event","name":"OwnershipHandoverCanceled","inputs":[{"name":"pendingOwner","type":"address","indexed":true,"internalType":"address"}],"anonymous":false},{"type":"event","name":"OwnershipHandoverRequested","inputs":[{"name":"pendingOwner","type":"address","indexed":true,"internalType":"address"}],"anonymous":false},{"type":"event","name":"OwnershipTransferred","inputs":[{"name":"oldOwner","type":"address","indexed":true,"internalType":"address"},{"name":"newOwner","type":"address","indexed":true,"internalType":"address"}],"anonymous":false},{"type":"event","name":"SetDefaultGovernanceFee","inputs":[{"name":"fee","type":"uint256","indexed":false,"internalType":"uint256"}],"anonymous":false},{"type":"event","name":"SetGovernanceFeeDestination","inputs":[{"name":"newFeeDestination","type":"address","indexed":false,"internalType":"address"}],"anonymous":false},{"type":"event","name":"VaultDeployed","inputs":[{"name":"vaultTemplate","type":"address","indexed":true,"internalType":"address"},{"name":"chainInterface","type":"address","indexed":true,"internalType":"address"},{"name":"deployer","type":"address","indexed":true,"internalType":"address"},{"name":"vaultAddress","type":"address","indexed":false,"internalType":"address"},{"name":"assets","type":"address[]","indexed":false,"internalType":"address[]"},{"name":"k","type":"uint256","indexed":false,"internalType":"uint256"}],"anonymous":false},{"type":"error","name":"AlreadyInitialized","inputs":[]},{"type":"error","name":"NewOwnerIsZeroAddress","inputs":[]},{"type":"error","name":"NoHandoverRequest","inputs":[]},{"type":"error","name":"Unauthorized","inputs":[]}],"bytecode":{"object":"0x6080601f610d7338819003918201601f19168301916001600160401b038311848410176100b0578084926020946040528339810103126100ab57516001600160a01b0381168082036100ab5780638b78c6d8195560007f8be0079c531659141344cd1fd0a4f28419497f9722a3daafe3b4186f6b6457e08180a360018054600160401b600160e01b031916604092831b600160401b600160e01b031617905551610cac90816100c78239f35b600080fd5b634e487b7160e01b600052604160045260246000fdfe608080604052600436101561001357600080fd5b600090813560e01c9081630819c20814610a275750806319b90b0d146109f057806325692962146109a557806341692d46146104f057806346208714146103b457806354d1f13d1461036e5780635cf057661461030a578063715018a6146102c35780638da5cb5b1461028b578063b00d04c0146101ee578063f04e283e14610160578063f2fde38b146100e55763fee81cf4146100b057600080fd5b346100e25760206003193601126100e2576100c9610a4d565b9063389a75e1600c5252602080600c2054604051908152f35b80fd5b5060206003193601126100e2576100fa610a4d565b610102610c59565b8060601b156101535773ffffffffffffffffffffffffffffffffffffffff16638b78c6d8198181547f8be0079c531659141344cd1fd0a4f28419497f9722a3daafe3b4186f6b6457e0600080a35580f35b637448fbae82526004601cfd5b5060206003193601126100e257610175610a4d565b61017d610c59565b63389a75e1600c528082526020600c20805442116101e157908273ffffffffffffffffffffffffffffffffffffffff925516638b78c6d8198181547f8be0079c531659141344cd1fd0a4f28419497f9722a3daafe3b4186f6b6457e0600080a35580f35b636f5e881883526004601cfd5b50346100e25760206003193601126100e25760043567ffffffffffffffff81168091036102865761021d610c59565b670a688906bd8b00008111610282577f969449e3bec3930e37d91ffd654adbf811f36035a014f3661197c665f8ce20826020604051838152a17fffffffffffffffffffffffffffffffffffffffffffffffff0000000000000000600154161760015580f35b5080fd5b600080fd5b50346100e257806003193601126100e2576020638b78c6d8195473ffffffffffffffffffffffffffffffffffffffff60405191168152f35b50806003193601126100e2576102d7610c59565b6000638b78c6d8198181547f8be0079c531659141344cd1fd0a4f28419497f9722a3daafe3b4186f6b6457e08280a35580f35b50346100e25760406003193601126100e257610324610a4d565b6024359173ffffffffffffffffffffffffffffffffffffffff80841680940361028657604092168152806020522090600052602052602060ff604060002054166040519015158152f35b50806003193601126100e25763389a75e1600c52338152806020600c2055337ffa7b8eab7da67f412cc9575ed43464468f9bfbae89d1675917346ca6d8fe3c928280a280f35b50346100e25760206003193601126100e2576103ce610a4d565b6103d6610c59565b73ffffffffffffffffffffffffffffffffffffffff8116801561046d5760207f7bd763a5c5177f59cce366e5ded7792f2445abd70233b61665b092da8567029091604051908152a17fffffffff0000000000000000000000000000000000000000ffffffffffffffff7bffffffffffffffffffffffffffffffffffffffff00000000000000006001549260401b1691161760015580f35b60846040517f08c379a0000000000000000000000000000000000000000000000000000000008152602060048201526024808201527f4665652064657374696e6174696f6e2063616e6e6f742062652061646472657360448201527f73283029000000000000000000000000000000000000000000000000000000006064820152fd5b50346100e2576101206003193601126100e25761050b610a4d565b60243567ffffffffffffffff81116109a15761052b903690600401610a70565b60449391933567ffffffffffffffff81116109a15761054e903690600401610a70565b91909360643567ffffffffffffffff811161099d57610571903690600401610a70565b966084359167ffffffffffffffff831683036108c45760a4359767ffffffffffffffff891689036109995760c43567ffffffffffffffff8111610995576105bc903690600401610ae4565b60e43567ffffffffffffffff81116108c0576105dc903690600401610ae4565b91610104359873ffffffffffffffffffffffffffffffffffffffff8a168a0361099157881561099157888d03610991576c5af43d3d93803e602a57fd5bf36021528760145273602c3d8160093d39f33d3d3d3d363d3d37363d738b526035600c8cf0918215610984578b6021528b5b8a81106108ea5750505073ffffffffffffffffffffffffffffffffffffffff169967ffffffffffffffff60015416638b78c6d81954918c3b156108e65773ffffffffffffffffffffffffffffffffffffffff6106ef938d959367ffffffffffffffff8e94846107016040519b8c9a8b9a7f39a391de000000000000000000000000000000000000000000000000000000008c5260e060048d015260e48c0190610ba4565b906003198b83030160248c0152610ba4565b9616604488015216606486015260848501521660a48301523360c48301520381838d5af180156108db576108c8575b50873b156108c457604051907f3cf183fa00000000000000000000000000000000000000000000000000000000825260806004830152610774608483018785610c02565b6003198382030160248401528a815260209a7f07ffffffffffffffffffffffffffffffffffffffffffffffffffffffffffffff81116108c057838a9381938e9360051b80928583013767ffffffffffffffff8916604484015233606484015201030181838c5af180156108b55761089d575b509173ffffffffffffffffffffffffffffffffffffffff939167ffffffffffffffff61082660409897958951958b875260608d8801526060870191610c02565b9116878401527f557178da8a41306163e174e11c8b798ad64c3b2502d575d7b632963dd837a12d339380878088169516930390a416815280845220816000528252604060002060017fffffffffffffffffffffffffffffffffffffffffffffffffffffffffffffff00825416179055604051908152f35b6108a78791610aa1565b6108b157386107e6565b8580fd5b6040513d89823e3d90fd5b8980fd5b8680fd5b6108d490979197610aa1565b9538610730565b6040513d8a823e3d90fd5b8b80fd5b6108f5818c8a610b65565b3573ffffffffffffffffffffffffffffffffffffffff81168103610980578d806020816064610925878a8a610b65565b3595604051966060528a6040523360601b602c526f23b872dd000000000000000000000000600c52601c9586915af190516001143d15171615610973575060608e905260405260010161064b565b60049150637939f4248f52fd5b8d80fd5b63301164258c526004601cfd5b8a80fd5b8880fd5b8780fd5b8480fd5b8280fd5b50806003193601126100e25763389a75e1600c523381526202a30042016020600c2055337fdbf36a107da19e49527a7176a1babf963b4b0ff8cde35ee35d6cd8f1f9ac7e1d8280a280f35b50346100e257806003193601126100e257602073ffffffffffffffffffffffffffffffffffffffff60015460401c16604051908152f35b90503461028257816003193601126102825760209067ffffffffffffffff600154168152f35b6004359073ffffffffffffffffffffffffffffffffffffffff8216820361028657565b9181601f840112156102865782359167ffffffffffffffff8311610286576020808501948460051b01011161028657565b67ffffffffffffffff8111610ab557604052565b7f4e487b7100000000000000000000000000000000000000000000000000000000600052604160045260246000fd5b81601f820112156102865780359067ffffffffffffffff92838311610ab55760405193601f84017fffffffffffffffffffffffffffffffffffffffffffffffffffffffffffffffe0908116603f0116850190811185821017610ab5576040528284526020838301011161028657816000926020809301838601378301015290565b9190811015610b755760051b0190565b7f4e487b7100000000000000000000000000000000000000000000000000000000600052603260045260246000fd5b919082519283825260005b848110610bee5750507fffffffffffffffffffffffffffffffffffffffffffffffffffffffffffffffe0601f8460006020809697860101520116010190565b602081830181015184830182015201610baf565b9190808252602080920192916000805b838210610c2157505050505090565b9091929394853573ffffffffffffffffffffffffffffffffffffffff81168091036109a1578152830194830193929160010190610c12565b638b78c6d819543303610c6857565b6382b429006000526004601cfdfea26469706673582212208ac4194f959cb8ac4f2bee4c4d4bd2d214f6fbb2ab8a1de0c7ca91cf72394d5c64736f6c63430008160033","linkReferences":{}},"methodIdentifiers":{"_defaultGovernanceFee()":"0819c208","_governanceFeeDestination()":"19b90b0d","cancelOwnershipHandover()":"54d1f13d","completeOwnershipHandover(address)":"f04e283e","deployVault(address,address[],uint256[],uint256[],uint64,uint64,string,string,address)":"41692d46","isCreatedByFactory(address,address)":"5cf05766","owner()":"8da5cb5b","ownershipHandoverExpiresAt(address)":"fee81cf4","renounceOwnership()":"715018a6","requestOwnershipHandover()":"25692962","setDefaultGovernanceFee(uint64)":"b00d04c0","setGovernanceFeeDestination(address)":"46208714","transferOwnership(address)":"f2fde38b"},"id":58}