{"abi":[{"type":"function","name":"calcAsyncPriceFrom","inputs":[{"name":"vault","type":"address","internalType":"address"},{"name":"fromAsset","type":"address","internalType":"address"}],"outputs":[{"name":"","type":"uint256","internalType":"uint256"}],"stateMutability":"view"},{"type":"function","name":"calcCombinedPriceCurves","inputs":[{"name":"input","type":"uint256","internalType":"uint256"},{"name":"A","type":"uint256","internalType":"uint256"},{"name":"B","type":"uint256","internalType":"uint256"},{"name":"W_A","type":"uint256","internalType":"uint256"},{"name":"W_B","type":"uint256","internalType":"uint256"}],"outputs":[{"name":"","type":"uint256","internalType":"uint256"}],"stateMutability":"pure"},{"type":"function","name":"calcCurrentPrice","inputs":[{"name":"vault","type":"address","internalType":"address"},{"name":"fromAsset","type":"address","internalType":"address"},{"name":"toAsset","type":"address","internalType":"address"}],"outputs":[{"name":"","type":"uint256","internalType":"uint256"}],"stateMutability":"view"},{"type":"function","name":"calcCurrentPriceTo","inputs":[{"name":"vault","type":"address","internalType":"address"},{"name":"toAsset","type":"address","internalType":"address"},{"name":"calcAsyncPriceFromQuote","type":"uint256","internalType":"uint256"}],"outputs":[{"name":"","type":"uint256","internalType":"uint256"}],"stateMutability":"view"},{"type":"function","name":"calcFee","inputs":[{"name":"vault","type":"address","internalType":"address"},{"name":"amount","type":"uint256","internalType":"uint256"}],"outputs":[{"name":"","type":"uint256","internalType":"uint256"}],"stateMutability":"view"},{"type":"function","name":"calcLocalSwap","inputs":[{"name":"vault","type":"address","internalType":"address"},{"name":"fromAsset","type":"address","internalType":"address"},{"name":"toAsset","type":"address","internalType":"address"},{"name":"amount","type":"uint256","internalType":"uint256"}],"outputs":[{"name":"","type":"uint256","internalType":"uint256"}],"stateMutability":"view"},{"type":"function","name":"calcPriceCurveArea","inputs":[{"name":"input","type":"uint256","internalType":"uint256"},{"name":"A","type":"uint256","internalType":"uint256"},{"name":"W","type":"uint256","internalType":"uint256"}],"outputs":[{"name":"","type":"uint256","internalType":"uint256"}],"stateMutability":"pure"},{"type":"function","name":"calcPriceCurveLimit","inputs":[{"name":"U","type":"uint256","internalType":"uint256"},{"name":"B","type":"uint256","internalType":"uint256"},{"name":"W","type":"uint256","internalType":"uint256"}],"outputs":[{"name":"","type":"uint256","internalType":"uint256"}],"stateMutability":"pure"},{"type":"function","name":"calcPriceCurveLimitShare","inputs":[{"name":"U","type":"uint256","internalType":"uint256"},{"name":"W","type":"uint256","internalType":"uint256"}],"outputs":[{"name":"","type":"uint256","internalType":"uint256"}],"stateMutability":"pure"},{"type":"function","name":"calcReceiveAsset","inputs":[{"name":"vault","type":"address","internalType":"address"},{"name":"toAsset","type":"address","internalType":"address"},{"name":"U","type":"uint256","internalType":"uint256"}],"outputs":[{"name":"","type":"uint256","internalType":"uint256"}],"stateMutability":"view"},{"type":"function","name":"calcSendAsset","inputs":[{"name":"vault","type":"address","internalType":"address"},{"name":"fromAsset","type":"address","internalType":"address"},{"name":"amount","type":"uint256","internalType":"uint256"}],"outputs":[{"name":"","type":"uint256","internalType":"uint256"}],"stateMutability":"view"},{"type":"function","name":"getTrueWeight","inputs":[{"name":"vault","type":"address","internalType":"address"},{"name":"asset","type":"address","internalType":"address"}],"outputs":[{"name":"","type":"uint256","internalType":"uint256"}],"stateMutability":"view"}],"bytecode":{"object":"0x6080806040523461001657611386908161001c8239f35b600080fdfe608060408181526004918236101561001657600080fd5b600092833560e01c918263030d21d1146104335750816314807a59146103f8578163179478a7146103dc5781631d16c3ee146103b357816335f4dc63146102605781634eb57ce6146101e3578163561ecfe1146101c7578163711d72871461017e575080638d2002d314610151578063a2930f3c14610117578063c3669cb3146100ea5763d0829e53146100a957600080fd5b346100e6576020906100df6100cf6100d96100d46100c6366105c3565b9490918261094f565b6110b4565b6110f7565b90610689565b9051908152f35b5080fd5b50346100e657806003193601126100e6576020906100df610109610513565b61011161053b565b90610da0565b50346100e65760806003193601126100e6576020906100df610137610513565b61013f61053b565b61014761055e565b9060643592610bcc565b50346100e657806003193601126100e6576020906100df610170610513565b61017861053b565b9061095c565b8284346101c45760a06003193601126101c457506100df602092602435906101bf6101b76100d4608435946100cf60443595358261094f565b606435610689565b610eba565b80fd5b5050346100e6576020906100df6101dd366105c3565b91610eba565b8284346101c457816003193601126101c45761021261020d610208602435863561069c565b610904565b610ee7565b90670de0b6b3a764000090828203918211610234576020846100df85856110b4565b806011867f4e487b71000000000000000000000000000000000000000000000000000000006024945252fd5b8284346101c45761027036610581565b9273ffffffffffffffffffffffffffffffffffffffff8083168651917f70a0823100000000000000000000000000000000000000000000000000000000835285169081898401526020988984602481855afa9384156103a957908a92918695610371575b506024908a5194859384927f24351d570000000000000000000000000000000000000000000000000000000084528301525afa928315610366578093610330575b50509161032a6101dd926100df96959461064d565b9261095c565b909192508782813d831161035f575b61034981836105dd565b810103126101c45750519061032a6100df610315565b503d61033f565b8751903d90823e3d90fd5b838193949296503d83116103a2575b61038a81836105dd565b8101031261039e57519289919060246102d4565b8480fd5b503d610380565b89513d87823e3d90fd5b5050346100e657806003193601126100e6576020906100df6103d3610513565b60243590610844565b5050346100e6576020906100df6103f236610581565b916106d5565b5050346100e65760606003193601126100e6576020906100df610419610513565b61042161053b565b6103f261042c61055e565b9183610da0565b939150346100e6576024908460208161044b36610581565b969199909573ffffffffffffffffffffffffffffffffffffffff907f70a08231000000000000000000000000000000000000000000000000000000008352818c169083015286165afa9384156105085780946104cd575b6020866100df896100d96100d48a6100cf6104c78c6104c18d8861095c565b96610844565b8261094f565b909193506020823d602011610500575b816104ea602093836105dd565b810103126101c4575051916100d46100d96104a2565b3d91506104dd565b8551903d90823e3d90fd5b6004359073ffffffffffffffffffffffffffffffffffffffff8216820361053657565b600080fd5b6024359073ffffffffffffffffffffffffffffffffffffffff8216820361053657565b6044359073ffffffffffffffffffffffffffffffffffffffff8216820361053657565b60031960609101126105365773ffffffffffffffffffffffffffffffffffffffff90600435828116810361053657916024359081168103610536579060443590565b600319606091011261053657600435906024359060443590565b90601f7fffffffffffffffffffffffffffffffffffffffffffffffffffffffffffffffe0910116810190811067ffffffffffffffff82111761061e57604052565b7f4e487b7100000000000000000000000000000000000000000000000000000000600052604160045260246000fd5b9190820391821161065a57565b7f4e487b7100000000000000000000000000000000000000000000000000000000600052601160045260246000fd5b8181029291811591840414171561065a57565b81156106a6570490565b7f4e487b7100000000000000000000000000000000000000000000000000000000600052601260045260246000fd5b9073ffffffffffffffffffffffffffffffffffffffff90818116604051927f70a0823100000000000000000000000000000000000000000000000000000000845284168060048501526020918285602481845afa94851561080957600095610815575b5082906024604051809481937f24351d5700000000000000000000000000000000000000000000000000000000835260048301525afa918215610809576000926107d9575b505061032a9061078c9361064d565b821580156107d1575b6107c957670de0b6b3a76400009182810292818404149015171561065a576107c6926107c091610689565b9061069c565b90565b505050600090565b508015610795565b90809250813d8311610802575b6107f081836105dd565b8101031261053657518261032a61077d565b503d6107e6565b6040513d6000823e3d90fd5b9094508281813d831161083d575b61082d81836105dd565b8101031261053657519382610738565b503d610823565b602073ffffffffffffffffffffffffffffffffffffffff916004604051809481937f46c3a2fd000000000000000000000000000000000000000000000000000000008352165afa908115610809576000916108c1575b5067ffffffffffffffff670de0b6b3a76400009116810390811161065a576107c691610e71565b6020813d6020116108fc575b816108da602093836105dd565b810103126100e657519067ffffffffffffffff821682036101c457503861089a565b3d91506108cd565b7f8000000000000000000000000000000000000000000000000000000000000000811461065a5760000390565b90816020910312610536575165ffffffffffff811681036105365790565b9190820180921161065a57565b9073ffffffffffffffffffffffffffffffffffffffff80921660408051907f9584c88800000000000000000000000000000000000000000000000000000000825260208083600481875afa928315610bc157600093610ba2575b5065ffffffffffff809316958251957f32a3385e00000000000000000000000000000000000000000000000000000000875216938460048701528186602481845afa958615610b5e57600096610b73575b508615610b69578251947f7d4c3eca00000000000000000000000000000000000000000000000000000000865260048601528185602481845afa948515610b5e57600095610b2f575b5090806004928451938480927f128581000000000000000000000000000000000000000000000000000000000082525afa928315610b255750600092610af8575b5050169083421015610af15782811115610ad357926107c0610acd92610ac7610abd866107c69861064d565b6100d9834261064d565b9261064d565b9061094f565b926107c0610aeb92610ac7610abd6107c6978761064d565b9061064d565b9250505090565b610b179250803d10610b1e575b610b0f81836105dd565b810190610931565b3880610a91565b503d610b05565b513d6000823e3d90fd5b90948282813d8311610b57575b610b4681836105dd565b810103126101c45750519381610a50565b503d610b3c565b83513d6000823e3d90fd5b5050505050905090565b90958282813d8311610b9b575b610b8a81836105dd565b810103126101c45750519438610a07565b503d610b80565b81610bba9294503d8511610b1e57610b0f81836105dd565b91386109b6565b82513d6000823e3d90fd5b919273ffffffffffffffffffffffffffffffffffffffff9060408051927f70a082310000000000000000000000000000000000000000000000000000000090818552808716908160048701526020908187602481848c165afa968715610d6657600097610d71575b50891684519384528260048501528184602481845afa938415610d6657600094610d37575b50819060248651809581937f24351d5700000000000000000000000000000000000000000000000000000000835260048301525afa938415610b255750600093610d03575b5050610cb0610cbe92610cb79261064d565b948661095c565b958561095c565b93848614610ce1576100d46101bf936100cf6104c76107c699956100d995610844565b93506107c6945080610cfd6107c0946100d9610acd9488610844565b94610844565b90809350813d8311610d30575b610d1a81836105dd565b8101031261053657905190610cb0610cb7610c9e565b503d610d10565b9093508181813d8311610d5f575b610d4f81836105dd565b8101031261053657519281610c59565b503d610d45565b85513d6000823e3d90fd5b90968282813d8311610d99575b610d8881836105dd565b810103126101c45750519538610c34565b503d610d7e565b90602491602073ffffffffffffffffffffffffffffffffffffffff604051948580927f70a08231000000000000000000000000000000000000000000000000000000008252808616600483015286165afa92831561080957600093610e3b575b5090610e0b9161095c565b8015610e3457670de0b6b3a76400009182810292818404149015171561065a576107c69161069c565b5050600090565b90926020823d602011610e69575b81610e56602093836105dd565b810103126101c457505191610e0b610e00565b3d9150610e49565b90807fffffffffffffffffffffffffffffffffffffffffffffffffffffffffffffffff0482118102610eac57670de0b6b3a764000091020490565b63bac65e5b6000526004601cfd5b610208610ecb929361020d9261069c565b670de0b6b3a764000090810390811161065a576107c691610e71565b7ffffffffffffffffffffffffffffffffffffffffffffffffdc0d0570925a462d78113156110ae57680755bf798b4a1bf1e58112156110a0576503782dace9d990604e1b0574029d9dc38563c32e5c2f6dc192ee70ef65f9978af36bb17217f7d1cf79abc9e3b3989179d835ebba824c98fb31b83b2ca45c0000000000000000000000006060916b8000000000000000000000008582851b0501831d94850290036e0587f503bb6ea29d25fcb740196450816c10fe68e7fd37d0007b713f7650810102841d936e05180bb14799ab47a8a8cb2a527d57837ffffffffffffffffffffffffffffffffffffd38dc772608b0ae56cce01296c0eb816db1bbb201f443cf962f1a1d3db4a5817fffffffffffffffffffffffffffffffffffffe5adedaa1cb095af9e4da10e363c816d0277594991cfc85f6e2461837cd9817fffffffffffffffffffffffffffffffffffffffdbf3ccf1604d263450f02a55048101028a1d0102881d0102861d0102841d0102821d01947ffffffffffffffffffffffffffffffffffffffe2c69812cf03b0763fd454a8f7e846d02d16720577bd19bf614176fe9ea830192010102901d01020105029060c3031c90565b63a37bfec96000526004601cfd5b50600090565b670de0b6b3a7640000907812725dd1d243aba0e75fe645cc4873f9e65afe688c928e1f2181118202158302156110e957020490565b637c5f487d6000526004601cfd5b806fffffffffffffffffffffffffffffffff1060071b81811c67ffffffffffffffff1060061b1781811c63ffffffff1060051b1781811c61ffff1060041b1781811c60ff1060031b176000821315611342577ff8f9f9faf9fdfafbf9fdfcfdfafbfcfef9fafdfafcfcfbfefafafcfbffffffff6f8421084210842108cc6318c6db6d54be83831c1c601f161a1890811b609f1c7ffffffffffffffff5f6af8f7b3396644f18e157960000000000000000000000006060917fffffffffffffffffffffffffffffffffffffff465fda27eb4d63ded474e5f832816c465772b2bbbb5f824b15207a30018202841d6d0388eaa27412d5aca026815d636e018202841d6d0df99ac502031bf953eff472fdcc018202841d6d13cdffb29d51d99322bdff5f2211018202841d6d0a0f742023def783a307a986912e018202841d6d01920d8043ca89b5239253284e42018202841d6c0b7a86d7375468fac667a0a5270193827ffffffffffffffffffffffffffffffffffffffdc7b88c420e53a9890533129f6f817fffffffffffffffffffffffffffffffffffffff73c0c716a594e00d54e3c4cbc9818080806c29508e458543d8aa4df2abee780102871d6d0139601a2efabe717e604cbb48940102861d6d02247f7a7b6594320649aa03aba10102851d0102831d0102901d01020105711340daa0d5f769dba1915cef59f0815a55060290609f037d0267a36c0c95b3975ab3ee5b203a7614a3f75373f047d803ae7b6687f2b302017d57115e47018c7177eebf7cd370a3356a1b7863008a5ae8028c72b88642840160ae1d90565b631615e6386000526004601cfdfea264697066735822122072d611f58a882f416e6208a73e928f34713270235904199078699fefa229e40764736f6c63430008160033","linkReferences":{}},"methodIdentifiers":{"calcAsyncPriceFrom(address,address)":"c3669cb3","calcCombinedPriceCurves(uint256,uint256,uint256,uint256,uint256)":"711d7287","calcCurrentPrice(address,address,address)":"14807a59","calcCurrentPriceTo(address,address,uint256)":"179478a7","calcFee(address,uint256)":"1d16c3ee","calcLocalSwap(address,address,address,uint256)":"a2930f3c","calcPriceCurveArea(uint256,uint256,uint256)":"d0829e53","calcPriceCurveLimit(uint256,uint256,uint256)":"561ecfe1","calcPriceCurveLimitShare(uint256,uint256)":"4eb57ce6","calcReceiveAsset(address,address,uint256)":"35f4dc63","calcSendAsset(address,address,uint256)":"030d21d1","getTrueWeight(address,address)":"8d2002d3"},"id":83}