{"abi":[{"type":"constructor","inputs":[{"name":"sendLostGasTo","type":"address","internalType":"address"},{"name":"uniqueChainIndex","type":"bytes32","internalType":"bytes32"},{"name":"signer","type":"address","internalType":"address"},{"name":"costOfMessages_","type":"uint128","internalType":"uint128"},{"name":"proofPeriod","type":"uint64","internalType":"uint64"}],"stateMutability":"nonpayable"},{"type":"function","name":"MESSAGE_REVERTED","inputs":[],"outputs":[{"name":"","type":"bytes1","internalType":"bytes1"}],"stateMutability":"view"},{"type":"function","name":"MESSAGE_TIMED_OUT","inputs":[],"outputs":[{"name":"","type":"bytes1","internalType":"bytes1"}],"stateMutability":"view"},{"type":"function","name":"NO_AUTHENTICATION","inputs":[],"outputs":[{"name":"","type":"bytes1","internalType":"bytes1"}],"stateMutability":"view"},{"type":"function","name":"SEND_LOST_GAS_TO","inputs":[],"outputs":[{"name":"","type":"address","internalType":"address"}],"stateMutability":"view"},{"type":"function","name":"UNIQUE_SOURCE_IDENTIFIER","inputs":[],"outputs":[{"name":"","type":"bytes32","internalType":"bytes32"}],"stateMutability":"view"},{"type":"function","name":"acceptOwnership","inputs":[],"outputs":[],"stateMutability":"nonpayable"},{"type":"function","name":"accumulator","inputs":[],"outputs":[{"name":"","type":"uint128","internalType":"uint128"}],"stateMutability":"view"},{"type":"function","name":"bounty","inputs":[{"name":"messageIdentifier","type":"bytes32","internalType":"bytes32"}],"outputs":[{"name":"incentive","type":"tuple","internalType":"struct IMessageEscrowStructs.IncentiveDescription","components":[{"name":"maxGasDelivery","type":"uint48","internalType":"uint48"},{"name":"maxGasAck","type":"uint48","internalType":"uint48"},{"name":"refundGasTo","type":"address","internalType":"address"},{"name":"priceOfDeliveryGas","type":"uint96","internalType":"uint96"},{"name":"priceOfAckGas","type":"uint96","internalType":"uint96"},{"name":"targetDelta","type":"uint64","internalType":"uint64"}]}],"stateMutability":"view"},{"type":"function","name":"collectPayments","inputs":[],"outputs":[],"stateMutability":"nonpayable"},{"type":"function","name":"convertEVMTo65","inputs":[{"name":"evmAddress","type":"address","internalType":"address"}],"outputs":[{"name":"","type":"bytes","internalType":"bytes"}],"stateMutability":"pure"},{"type":"function","name":"estimateAdditionalCost","inputs":[],"outputs":[{"name":"asset","type":"address","internalType":"address"},{"name":"amount","type":"uint256","internalType":"uint256"}],"stateMutability":"view"},{"type":"function","name":"implementationAddress","inputs":[{"name":"","type":"address","internalType":"address"},{"name":"","type":"bytes32","internalType":"bytes32"}],"outputs":[{"name":"","type":"bytes","internalType":"bytes"}],"stateMutability":"view"},{"type":"function","name":"implementationAddressHash","inputs":[{"name":"","type":"address","internalType":"address"},{"name":"","type":"bytes32","internalType":"bytes32"}],"outputs":[{"name":"","type":"bytes32","internalType":"bytes32"}],"stateMutability":"view"},{"type":"function","name":"increaseBounty","inputs":[{"name":"messageIdentifier","type":"bytes32","internalType":"bytes32"},{"name":"deliveryGasPriceIncrease","type":"uint96","internalType":"uint96"},{"name":"ackGasPriceIncrease","type":"uint96","internalType":"uint96"}],"outputs":[],"stateMutability":"payable"},{"type":"function","name":"messageDelivered","inputs":[{"name":"sourceIdentifier","type":"bytes32","internalType":"bytes32"},{"name":"sourceImplementationIdentifier","type":"bytes","internalType":"bytes"},{"name":"messageIdentifier","type":"bytes32","internalType":"bytes32"}],"outputs":[{"name":"hasMessageBeenExecuted","type":"bytes32","internalType":"bytes32"}],"stateMutability":"view"},{"type":"function","name":"owner","inputs":[],"outputs":[{"name":"","type":"address","internalType":"address"}],"stateMutability":"view"},{"type":"function","name":"pendingOwner","inputs":[],"outputs":[{"name":"","type":"address","internalType":"address"}],"stateMutability":"view"},{"type":"function","name":"processPacket","inputs":[{"name":"messagingProtocolContext","type":"bytes","internalType":"bytes"},{"name":"rawMessage","type":"bytes","internalType":"bytes"},{"name":"feeRecipient","type":"bytes32","internalType":"bytes32"}],"outputs":[],"stateMutability":"payable"},{"type":"function","name":"proofValidPeriod","inputs":[{"name":"destinationIdentifier","type":"bytes32","internalType":"bytes32"}],"outputs":[{"name":"timestamp","type":"uint64","internalType":"uint64"}],"stateMutability":"view"},{"type":"function","name":"recoverAck","inputs":[{"name":"messagingProtocolContext","type":"bytes","internalType":"bytes"},{"name":"rawMessage","type":"bytes","internalType":"bytes"}],"outputs":[],"stateMutability":"nonpayable"},{"type":"function","name":"reemitAckMessage","inputs":[{"name":"sourceIdentifier","type":"bytes32","internalType":"bytes32"},{"name":"implementationIdentifier","type":"bytes","internalType":"bytes"},{"name":"receiveAckWithContext","type":"bytes","internalType":"bytes"}],"outputs":[],"stateMutability":"payable"},{"type":"function","name":"renounceOwnership","inputs":[],"outputs":[],"stateMutability":"nonpayable"},{"type":"function","name":"setRemoteImplementation","inputs":[{"name":"destinationIdentifier","type":"bytes32","internalType":"bytes32"},{"name":"implementation","type":"bytes","internalType":"bytes"}],"outputs":[],"stateMutability":"nonpayable"},{"type":"function","name":"submitMessage","inputs":[{"name":"destinationIdentifier","type":"bytes32","internalType":"bytes32"},{"name":"destinationAddress","type":"bytes","internalType":"bytes"},{"name":"message","type":"bytes","internalType":"bytes"},{"name":"incentive","type":"tuple","internalType":"struct IMessageEscrowStructs.IncentiveDescription","components":[{"name":"maxGasDelivery","type":"uint48","internalType":"uint48"},{"name":"maxGasAck","type":"uint48","internalType":"uint48"},{"name":"refundGasTo","type":"address","internalType":"address"},{"name":"priceOfDeliveryGas","type":"uint96","internalType":"uint96"},{"name":"priceOfAckGas","type":"uint96","internalType":"uint96"},{"name":"targetDelta","type":"uint64","internalType":"uint64"}]},{"name":"deadline","type":"uint64","internalType":"uint64"}],"outputs":[{"name":"gasRefund","type":"uint256","internalType":"uint256"},{"name":"messageIdentifier","type":"bytes32","internalType":"bytes32"}],"stateMutability":"payable"},{"type":"function","name":"thisBytes65","inputs":[],"outputs":[{"name":"","type":"bytes","internalType":"bytes"}],"stateMutability":"view"},{"type":"function","name":"timeoutMessage","inputs":[{"name":"sourceIdentifier","type":"bytes32","internalType":"bytes32"},{"name":"implementationIdentifier","type":"bytes","internalType":"bytes"},{"name":"originBlockNumber","type":"uint256","internalType":"uint256"},{"name":"message","type":"bytes","internalType":"bytes"}],"outputs":[],"stateMutability":"payable"},{"type":"function","name":"transferOwnership","inputs":[{"name":"newOwner","type":"address","internalType":"address"}],"outputs":[],"stateMutability":"nonpayable"},{"type":"event","name":"BountyClaimed","inputs":[{"name":"destinationImplementation","type":"bytes","indexed":true,"internalType":"bytes"},{"name":"chainIdentifier","type":"bytes32","indexed":false,"internalType":"bytes32"},{"name":"messageIdentifier","type":"bytes32","indexed":true,"internalType":"bytes32"},{"name":"gasSpentOnDestination","type":"uint64","indexed":false,"internalType":"uint64"},{"name":"gasSpentOnSource","type":"uint64","indexed":false,"internalType":"uint64"},{"name":"destinationRelayerReward","type":"uint128","indexed":false,"internalType":"uint128"},{"name":"sourceRelayerReward","type":"uint128","indexed":false,"internalType":"uint128"}],"anonymous":false},{"type":"event","name":"BountyIncreased","inputs":[{"name":"messageIdentifier","type":"bytes32","indexed":true,"internalType":"bytes32"},{"name":"newDeliveryGasPrice","type":"uint96","indexed":false,"internalType":"uint96"},{"name":"newAckGasPrice","type":"uint96","indexed":false,"internalType":"uint96"}],"anonymous":false},{"type":"event","name":"BountyPlaced","inputs":[{"name":"destinationImplementation","type":"bytes","indexed":true,"internalType":"bytes"},{"name":"chainIdentifier","type":"bytes32","indexed":false,"internalType":"bytes32"},{"name":"messageIdentifier","type":"bytes32","indexed":true,"internalType":"bytes32"},{"name":"incentive","type":"tuple","indexed":false,"internalType":"struct IMessageEscrowStructs.IncentiveDescription","components":[{"name":"maxGasDelivery","type":"uint48","internalType":"uint48"},{"name":"maxGasAck","type":"uint48","internalType":"uint48"},{"name":"refundGasTo","type":"address","internalType":"address"},{"name":"priceOfDeliveryGas","type":"uint96","internalType":"uint96"},{"name":"priceOfAckGas","type":"uint96","internalType":"uint96"},{"name":"targetDelta","type":"uint64","internalType":"uint64"}]}],"anonymous":false},{"type":"event","name":"Message","inputs":[{"name":"destinationIdentifier","type":"bytes32","indexed":false,"internalType":"bytes32"},{"name":"recipient","type":"bytes","indexed":false,"internalType":"bytes"},{"name":"message","type":"bytes","indexed":false,"internalType":"bytes"}],"anonymous":false},{"type":"event","name":"MessageAcked","inputs":[{"name":"destinationImplementation","type":"bytes","indexed":false,"internalType":"bytes"},{"name":"chainIdentifier","type":"bytes32","indexed":false,"internalType":"bytes32"},{"name":"messageIdentifier","type":"bytes32","indexed":false,"internalType":"bytes32"}],"anonymous":false},{"type":"event","name":"MessageDelivered","inputs":[{"name":"sourceImplementation","type":"bytes","indexed":true,"internalType":"bytes"},{"name":"chainIdentifier","type":"bytes32","indexed":false,"internalType":"bytes32"},{"name":"messageIdentifier","type":"bytes32","indexed":true,"internalType":"bytes32"}],"anonymous":false},{"type":"event","name":"MessageTimedOut","inputs":[{"name":"destinationImplementation","type":"bytes","indexed":false,"internalType":"bytes"},{"name":"chainIdentifier","type":"bytes32","indexed":false,"internalType":"bytes32"},{"name":"messageIdentifier","type":"bytes32","indexed":false,"internalType":"bytes32"}],"anonymous":false},{"type":"event","name":"OwnershipTransferStarted","inputs":[{"name":"previousOwner","type":"address","indexed":true,"internalType":"address"},{"name":"newOwner","type":"address","indexed":true,"internalType":"address"}],"anonymous":false},{"type":"event","name":"OwnershipTransferred","inputs":[{"name":"previousOwner","type":"address","indexed":true,"internalType":"address"},{"name":"newOwner","type":"address","indexed":true,"internalType":"address"}],"anonymous":false},{"type":"event","name":"RemoteImplementationSet","inputs":[{"name":"application","type":"address","indexed":false,"internalType":"address"},{"name":"chainIdentifier","type":"bytes32","indexed":false,"internalType":"bytes32"},{"name":"implementationAddressHash","type":"bytes32","indexed":false,"internalType":"bytes32"},{"name":"implementationAddress","type":"bytes","indexed":false,"internalType":"bytes"}],"anonymous":false},{"type":"event","name":"TimeoutInitiated","inputs":[{"name":"sourceImplementation","type":"bytes","indexed":false,"internalType":"bytes"},{"name":"chainIdentifier","type":"bytes32","indexed":false,"internalType":"bytes32"},{"name":"messageIdentifier","type":"bytes32","indexed":false,"internalType":"bytes32"}],"anonymous":false},{"type":"error","name":"AckHasNotBeenExecuted","inputs":[]},{"type":"error","name":"CannotRetryWrongMessage","inputs":[{"name":"expected","type":"bytes32","internalType":"bytes32"},{"name":"actual","type":"bytes32","internalType":"bytes32"}]},{"type":"error","name":"DeadlineInPast","inputs":[{"name":"blocktimestamp","type":"uint64","internalType":"uint64"},{"name":"actual","type":"uint64","internalType":"uint64"}]},{"type":"error","name":"DeadlineNotPassed","inputs":[{"name":"expected","type":"uint64","internalType":"uint64"},{"name":"actual","type":"uint64","internalType":"uint64"}]},{"type":"error","name":"DeadlineTooLong","inputs":[{"name":"maxAllowed","type":"uint64","internalType":"uint64"},{"name":"actual","type":"uint64","internalType":"uint64"}]},{"type":"error","name":"ImplementationAddressAlreadySet","inputs":[{"name":"currentImplementation","type":"bytes","internalType":"bytes"}]},{"type":"error","name":"IncorrectValueProvided","inputs":[{"name":"expected","type":"uint128","internalType":"uint128"},{"name":"actual","type":"uint128","internalType":"uint128"}]},{"type":"error","name":"InvalidBytes65Address","inputs":[]},{"type":"error","name":"InvalidImplementationAddress","inputs":[]},{"type":"error","name":"InvalidSigner","inputs":[]},{"type":"error","name":"InvalidTimeoutPackage","inputs":[{"name":"expected","type":"bytes32","internalType":"bytes32"},{"name":"actual","type":"bytes32","internalType":"bytes32"}]},{"type":"error","name":"MessageAlreadyAcked","inputs":[]},{"type":"error","name":"MessageAlreadyBountied","inputs":[]},{"type":"error","name":"MessageAlreadyProcessed","inputs":[]},{"type":"error","name":"MessageAlreadySpent","inputs":[]},{"type":"error","name":"MessageDoesNotExist","inputs":[]},{"type":"error","name":"MessageHasInvalidContext","inputs":[]},{"type":"error","name":"NoImplementationAddressSet","inputs":[]},{"type":"error","name":"NotEnoughGasExecution","inputs":[]},{"type":"error","name":"NotEnoughGasProvided","inputs":[{"name":"expected","type":"uint128","internalType":"uint128"},{"name":"actual","type":"uint128","internalType":"uint128"}]},{"type":"error","name":"NotImplementedError","inputs":[]},{"type":"error","name":"RefundGasToIsZero","inputs":[]}],"bytecode":{"object":"0x60e03462000138576001600160401b0390601f620041b738819003918201601f1916830191848311848410176200013d5780849260a09460405283398101031262000138576200004f8162000153565b906020810151620000636040830162000153565b6060830151936001600160801b0393909190848616860362000138576080015195861686036200013857620000bd91608052620000a03362000168565b60018060801b031992600184600654161760065560a05262000168565b6006549260801b1691161760065560c052604051613ffa9081620001bd8239608051818181610c2801528181613c9501528181613d1001528181613e8f0152613f71015260a051818181611434015281816122240152818161265b01528181612e5e0152613148015260c05181818161107901526125eb0152f35b600080fd5b634e487b7160e01b600052604160045260246000fd5b51906001600160a01b03821682036200013857565b600580546001600160a01b0319908116909155600480549182166001600160a01b0393841690811790915591167f8be0079c531659141344cd1fd0a4f28419497f9722a3daafe3b4186f6b6457e0600080a356fe608060409080825260048036101561001657600080fd5b600091823560e01c90816303381154146115f1575080632439909c146114da5780633a24ef35146114575780633ccb217e146113fe5780633fccfa061461138a5780634487b9fc1461117b5780634993ef331461110d57806353391d3f1461109d5780635a6405141461103957806365a686de14610f4e578063715018a614610ea35780637712469614610e4a57806379ba509714610d145780638caa89ec14610c9f5780638da5cb5b14610c4c5780638dedc17914610bdd57806392006e7314610b98578063a00d079814610b3f578063a28a469d14610ae6578063ce07216314610a0f578063daf1e167146109d2578063dd6487fc14610967578063dfe1aef91461066d578063e30c39781461061a578063ea901f1a146105be578063f2fde38b146105125763ffbeacc71461014d57600080fd5b3461050e57827ffffffffffffffffffffffffffffffffffffffffffffffffffffffffffffffffc36011261050e5780359067ffffffffffffffff60243581811161050a5761019e903690840161163d565b959091338652602093600385528287208688528552828720546104105787156103e9573387526002855282872086885285528287209188116103bd57506101e58154611693565b601f811161037a575b5085601f88116001146102b55791879187986102a495947f84cad7de2c9074e70f8d697042ecb3c00ae9e6622320cb8c48bdd4d5d709e79699916102aa575b508360011b907fffffffffffffffffffffffffffffffffffffffffffffffffffffffffffffffff8560031b1c19161790555b61026a368385611915565b8581519101209033895260038652808920878a52865281818a2055805196879633885287015285015260806060850152608084019161189c565b0390a180f35b90508401353861022d565b818752848720907fffffffffffffffffffffffffffffffffffffffffffffffffffffffffffffffe08916885b8181106103635750918993917f84cad7de2c9074e70f8d697042ecb3c00ae9e6622320cb8c48bdd4d5d709e796999a6102a49796941061032b575b5050600183811b01905561025f565b7fffffffffffffffffffffffffffffffffffffffffffffffffffffffffffffffff60f88660031b161c1990860135169055388061031c565b91928760018192868a0135815501940192016102e1565b818752848720601f890160051c810191868a106103b3575b601f0160051c01905b8181106103a857506101ee565b87815560010161039b565b9091508190610392565b8660416024927f4e487b7100000000000000000000000000000000000000000000000000000000835252fd5b82517f9f994b4b000000000000000000000000000000000000000000000000000000008152fd5b33875260028552828720868852855282872083517fdba4785000000000000000000000000000000000000000000000000000000000815291820186905280548291899188908361045f82611693565b938460248801526044906001936001811690816000146104c55750600114610488575b87870388fd5b9091809650528285205b8486106104af575050505050604490820101838080808080610482565b8054888701830152879650948301948201610492565b945050505050604493507fffffffffffffffffffffffffffffffffffffffffffffffffffffffffffffff0091501682840152151560051b820101838080808080610482565b8480fd5b5080fd5b503461050e5760207ffffffffffffffffffffffffffffffffffffffffffffffffffffffffffffffffc36011261050e5761054a611670565b610552613a33565b73ffffffffffffffffffffffffffffffffffffffff80911691827fffffffffffffffffffffffff0000000000000000000000000000000000000000600554161760055554167f38d16b8cac22d99fc7c124b9cd0de2d3fa1faef420bfe791d8c362d765e227008380a380f35b82843461050e5760207ffffffffffffffffffffffffffffffffffffffffffffffffffffffffffffffffc36011261050e57610616906106036105fe611670565b612d38565b9051918291602083526020830190611859565b0390f35b82843461050e57817ffffffffffffffffffffffffffffffffffffffffffffffffffffffffffffffffc36011261050e5760209073ffffffffffffffffffffffffffffffffffffffff600554169051908152f35b503461050e57827ffffffffffffffffffffffffffffffffffffffffffffffffffffffffffffffffc36011261050e5767ffffffffffffffff8135818111610963576106bb903690840161163d565b9060243583811161095f57906106d86106e093923690870161163d565b929091613072565b929491939083156109335780357fff00000000000000000000000000000000000000000000000000000000000000167f01000000000000000000000000000000000000000000000000000000000000000361090b578360211161090757600181013593848852876020528888205460601c6108df57806062116108db57604e82013560601c918289526003602052898920888a526020528989205487516020890120036108b357816090116108af57823b156108af578593927fffffffffffffffffffffffffffffffffffffffffffffffffffffffffffffff708a80946107fd6090958f8e90519a8b98899788967f11cbf805000000000000000000000000000000000000000000000000000000008852019301918d8601612cf7565b03925af180156108a557610840575b5050506102a4907ff865f210bf9219c3ca273416db27a66557c44a930cfbc569e325afc1e809a30794955193849384612d16565b819796929711610879578552939450807ff865f210bf9219c3ca273416db27a66557c44a930cfbc569e325afc1e809a3076102a461080c565b6024826041897f4e487b7100000000000000000000000000000000000000000000000000000000835252fd5b88513d89823e3d90fd5b8880fd5b848a517fc970156c000000000000000000000000000000000000000000000000000000008152fd5b8780fd5b8389517f3d1553f8000000000000000000000000000000000000000000000000000000008152fd5b8680fd5b8288517fd41c17e7000000000000000000000000000000000000000000000000000000008152fd5b6024876032857f4e487b7100000000000000000000000000000000000000000000000000000000835252fd5b8580fd5b8380fd5b82843461050e57807ffffffffffffffffffffffffffffffffffffffffffffffffffffffffffffffffc36011261050e578060209273ffffffffffffffffffffffffffffffffffffffff6109b8611670565b168152600384528181206024358252845220549051908152f35b82843461050e57817ffffffffffffffffffffffffffffffffffffffffffffffffffffffffffffffffc36011261050e576106169061060330612d38565b508183913461050e57817ffffffffffffffffffffffffffffffffffffffffffffffffffffffffffffffffc36011261050e57818073ffffffffffffffffffffffffffffffffffffffff819354166fffffffffffffffffffffffffffffffff7fffffffffffffffffffffffffffffffffffffffffffffffffffffffffffffffff8160065416011690828215610add575bf115610ad3575060017fffffffffffffffffffffffffffffffff00000000000000000000000000000000600654161760065580f35b51903d90823e3d90fd5b506108fc610a9e565b82843461050e57817ffffffffffffffffffffffffffffffffffffffffffffffffffffffffffffffffc36011261050e57602090517fff000000000000000000000000000000000000000000000000000000000000008152f35b82843461050e57817ffffffffffffffffffffffffffffffffffffffffffffffffffffffffffffffffc36011261050e57602090517ffe000000000000000000000000000000000000000000000000000000000000008152f35b505034610bda57807ffffffffffffffffffffffffffffffffffffffffffffffffffffffffffffffffc360112610bda5760065460801c82519182526020820152f35b80fd5b82843461050e57817ffffffffffffffffffffffffffffffffffffffffffffffffffffffffffffffffc36011261050e576020905173ffffffffffffffffffffffffffffffffffffffff7f0000000000000000000000000000000000000000000000000000000000000000168152f35b50919034610bda57807ffffffffffffffffffffffffffffffffffffffffffffffffffffffffffffffffc360112610bda575073ffffffffffffffffffffffffffffffffffffffff60209254169051908152f35b5060607ffffffffffffffffffffffffffffffffffffffffffffffffffffffffffffffffc36011261050e5767ffffffffffffffff9060243582811161096357610ceb903690830161163d565b60449291923593841161050a57610d08610d11943690840161163d565b93909235612c2a565b80f35b508234610e4657827ffffffffffffffffffffffffffffffffffffffffffffffffffffffffffffffffc360112610e46576005549173ffffffffffffffffffffffffffffffffffffffff913383851603610dc357507fffffffffffffffffffffffff0000000000000000000000000000000000000000809316600555805492339084161790553391167f8be0079c531659141344cd1fd0a4f28419497f9722a3daafe3b4186f6b6457e08380a380f35b90602060849251917f08c379a0000000000000000000000000000000000000000000000000000000008352820152602960248201527f4f776e61626c6532537465703a2063616c6c6572206973206e6f74207468652060448201527f6e6577206f776e657200000000000000000000000000000000000000000000006064820152fd5b8280fd5b82843461050e57817ffffffffffffffffffffffffffffffffffffffffffffffffffffffffffffffffc36011261050e57602090517ffd000000000000000000000000000000000000000000000000000000000000008152f35b50819034610f4b57817ffffffffffffffffffffffffffffffffffffffffffffffffffffffffffffffffc360112610f4b5773ffffffffffffffffffffffffffffffffffffffff90610ef2613a33565b7fffffffffffffffffffffffff000000000000000000000000000000000000000090816005541660055580549182169055167f8be0079c531659141344cd1fd0a4f28419497f9722a3daafe3b4186f6b6457e08280a380f35b50fd5b5091906101407ffffffffffffffffffffffffffffffffffffffffffffffffffffffffffffffffc360112610bda5767ffffffffffffffff9060243582811161050e57610f9d903690860161163d565b604492919235848111610e4657610fb7903690880161163d565b93909260c07fffffffffffffffffffffffffffffffffffffffffffffffffffffffffffffff9c360112610bda57610124359586168603610bda5750604182036110115761100595963561257a565b82519182526020820152f35b8686517fbbcd8eb1000000000000000000000000000000000000000000000000000000008152fd5b82843461050e5760207ffffffffffffffffffffffffffffffffffffffffffffffffffffffffffffffffc36011261050e576020905167ffffffffffffffff7f0000000000000000000000000000000000000000000000000000000000000000168152f35b5060607ffffffffffffffffffffffffffffffffffffffffffffffffffffffffffffffffc36011261050e5767ffffffffffffffff8135818111610963576110e7903690840161163d565b909160243590811161050a57610d11936111039136910161163d565b9160443593611d44565b82843461050e57807ffffffffffffffffffffffffffffffffffffffffffffffffffffffffffffffffc36011261050e57610603816106169373ffffffffffffffffffffffffffffffffffffffff611162611670565b1681526002602052818120602435825260205220611772565b508260607ffffffffffffffffffffffffffffffffffffffffffffffffffffffffffffffffc360112610e46578135916bffffffffffffffffffffffff90602435828116810361095f5760443591838316830361090757858752866020528487205460601c1561136357858752866020528487209061121f8254866112188765ffffffffffff8361120d8a838816611cdd565b169460301c16611cdd565b1690611d00565b906fffffffffffffffffffffffffffffffff90818316340361130d57505050926112fe7fffffffffffffffffffffffffffffffffffffffff00000000000000000000000093829360017f0f9ca48bcb4f4aea18e50df9f1df3c02df5c9c48f05e389a349c8ceb242da581989701906112aa61129e835492878416611d24565b93868360601c16611d24565b9485931696879116178155907fffffffffffffffff000000000000000000000000ffffffffffffffffffffffff77ffffffffffffffffffffffff00000000000000000000000083549260601b169116179055565b8351928352166020820152a280f35b87517f0b52a60b0000000000000000000000000000000000000000000000000000000081526fffffffffffffffffffffffffffffffff938416918101918252349092169290921660208301529081906040010390fd5b84517f970e41ec000000000000000000000000000000000000000000000000000000008152fd5b5060807ffffffffffffffffffffffffffffffffffffffffffffffffffffffffffffffffc36011261050e5767ffffffffffffffff90602435828111610963576113d6903690830161163d565b9160643593841161050a576113f1610d11943690830161163d565b9390926044359235611988565b82843461050e57817ffffffffffffffffffffffffffffffffffffffffffffffffffffffffffffffffc36011261050e57602090517f00000000000000000000000000000000000000000000000000000000000000008152f35b50829034610e465760607ffffffffffffffffffffffffffffffffffffffffffffffffffffffffffffffffc360112610e465760243567ffffffffffffffff81116109635792829160206114ae81963690840161163d565b923584526001825284842083865194859384378201908152030190206044358252845220549051908152f35b50829034610e465760207ffffffffffffffffffffffffffffffffffffffffffffffffffffffffffffffffc360112610e4657818367ffffffffffffffff9260c09560a08451611528816116e6565b828152826020820152828682015282606082015282608082015201523581528060205220918051611558816116e6565b83549065ffffffffffff8083169586835260016020840191838660301c1683528685019560601c865201549473ffffffffffffffffffffffffffffffffffffffff6bffffffffffffffffffffffff9586946060870194868a16865260a06080890198888c60601c168a5201998d1c8a5284519b8c52511660208b01525116908801525116606086015251166080840152511660a0820152f35b83903461050e57817ffffffffffffffffffffffffffffffffffffffffffffffffffffffffffffffffc36011261050e576020906fffffffffffffffffffffffffffffffff600654168152f35b9181601f8401121561166b5782359167ffffffffffffffff831161166b576020838186019501011161166b57565b600080fd5b6004359073ffffffffffffffffffffffffffffffffffffffff8216820361166b57565b90600182811c921680156116dc575b60208310146116ad57565b7f4e487b7100000000000000000000000000000000000000000000000000000000600052602260045260246000fd5b91607f16916116a2565b60c0810190811067ffffffffffffffff82111761170257604052565b7f4e487b7100000000000000000000000000000000000000000000000000000000600052604160045260246000fd5b90601f7fffffffffffffffffffffffffffffffffffffffffffffffffffffffffffffffe0910116810190811067ffffffffffffffff82111761170257604052565b9060405191826000825461178581611693565b908184526020946001916001811690816000146117f557506001146117b6575b5050506117b492500383611731565b565b600090815285812095935091905b8183106117dd5750506117b493508201013880806117a5565b855488840185015294850194879450918301916117c4565b9150506117b49593507fffffffffffffffffffffffffffffffffffffffffffffffffffffffffffffff0091501682840152151560051b8201013880806117a5565b60005b8381106118495750506000910152565b8181015183820152602001611839565b907fffffffffffffffffffffffffffffffffffffffffffffffffffffffffffffffe0601f60209361189581518092818752878088019101611836565b0116010190565b601f82602094937fffffffffffffffffffffffffffffffffffffffffffffffffffffffffffffffe0938186528686013760008582860101520116010190565b67ffffffffffffffff811161170257601f017fffffffffffffffffffffffffffffffffffffffffffffffffffffffffffffffe01660200190565b929192611921826118db565b9161192f6040519384611731565b82948184528183011161166b578281602093846000960137010152565b9190820391821161195957565b7f4e487b7100000000000000000000000000000000000000000000000000000000600052601160045260246000fd5b93949290928015611cae577fff00000000000000000000000000000000000000000000000000000000000000863516611c84578060211161166b57600186013591600091868352600160205260409788842060208a518092898b83378982019081520301902085855260205288842054611c5b578160ab116109635760a3810135928360c01c80158015611c51575b611c0d57508260621161050a578260b11161050a577fffffffffffffffff0000000000000000000000000000000000000000000000009794611b789997947f4b43f0920d04b8fb5f32167b55abce15859e8d8bb1bfe84ba2909268d77de8d294611b729894611b47948e519c8d947f0200000000000000000000000000000000000000000000000000000000000000602087015288602187015260416021850181880137166082850152608a84015260b17fffffffffffffffffffffffffffffffffffffffffffffffffffffffffffffff4f8301910160aa84013781017ffffffffffffffffffffffffffffffffffffffffffffffffffffffffffffffff99283820152037fffffffffffffffffffffffffffffffffffffffffffffffffffffffffffffffd981018a520188611731565b8851809160608252611b5d60608301868861189c565b908860208401528b8301520390a13691611915565b90612e0a565b906fffffffffffffffffffffffffffffffff90813416918316808303611b9e5750505050565b80839495929311611bf4575050517f030748b50000000000000000000000000000000000000000000000000000000081526fffffffffffffffffffffffffffffffff918216600482015291166024820152604490fd5b9093506117b49250611c0791503461194c565b33612f5a565b8a517f862c57f400000000000000000000000000000000000000000000000000000000815267ffffffffffffffff9182166004820152429091166024820152604490fd5b5042811015611a17565b600489517f7b042609000000000000000000000000000000000000000000000000000000008152fd5b60046040517f3fcdbaba000000000000000000000000000000000000000000000000000000008152fd5b7f4e487b7100000000000000000000000000000000000000000000000000000000600052603260045260246000fd5b9190916bffffffffffffffffffffffff8080941691160291821691820361195957565b9190916fffffffffffffffffffffffffffffffff8080941691160191821161195957565b9190916bffffffffffffffffffffffff8080941691160191821161195957565b93929091611d53925a95613072565b6000959293949195811561252d5786357fff000000000000000000000000000000000000000000000000000000000000001680611e2e57505090611d9d9291611da3968587613369565b91612e0a565b6fffffffffffffffffffffffffffffffff803416908216808203611dc657505050565b808293949211611e1d5750506040517f030748b50000000000000000000000000000000000000000000000000000000081526fffffffffffffffffffffffffffffffff918216600482015291166024820152604490fd5b611c079193506117b492503461194c565b7f0100000000000000000000000000000000000000000000000000000000000000819895939694929814600014612164575084602111610907576001840135875286602052604087209160018354930154928060601c1561213a576001860135895288602052886001604082208281550155866062116108af57604e86013560601c8952600360205260408920888a526020526040892054855160208701200361211057866090116108af57888088611f49611f758c6040519283918d7fffffffffffffffffffffffffffffffffffffffffffffffffffffffffffffff7060208501977f11cbf80500000000000000000000000000000000000000000000000000000000895201916001609083019201359060248601612cf7565b037fffffffffffffffffffffffffffffffffffffffffffffffffffffffffffffffe08101835282611731565b519082604e8b013560601c65ffffffffffff8760301c16f1156120cd575b866088116108af57608286013560d01c966082116108af5760a0946120506001957f9f9aef021b9656e38cd2086f7d7ee0f6b6062c8078a049bfecd6356fdbeb1b3c98956120a69567ffffffffffffffff9573ffffffffffffffffffffffffffffffffffffffff918d60888b013560c01c95848160c01c96169460628d013516938060601c936bffffffffffffffffffffffff8360601c169365ffffffffffff6bffffffffffffffffffffffff818560301c169516931691613d66565b9390917ff865f210bf9219c3ca273416db27a66557c44a930cfbc569e325afc1e809a30761208a8d6040519182918c8c0135908984612d16565b0390a16fffffffffffffffffffffffffffffffff95869461255a565b9a6040519c8d5260208d01521660408b0152166060890152166080870152013593a3611da3565b5a65ffffffffffff603f818460301c1604161115611f93575b60046040517f6bc33587000000000000000000000000000000000000000000000000000000008152fd5b60046040517fc970156c000000000000000000000000000000000000000000000000000000008152fd5b60046040517f8af35858000000000000000000000000000000000000000000000000000000008152fd5b7f020000000000000000000000000000000000000000000000000000000000000090959291939514600014612503578160621161090757604e84013560601c8752600360205260408720868852602052604087205485516020870120036121105781606a1161090757606284013560c01c4281108015906124fb575b6124b65782608a116108db576122579087612221367fffffffffffffffffffffffffffffffffffffffffffffffffffffffffffffff768701608a8a01611915565b917f000000000000000000000000000000000000000000000000000000000000000090606a89013590604e8a013560601c613ab2565b826021116108db576001850135810361247b57506001840135875286602052604087209260018454940154928460601c1561213a578888611f496123296122db7fffffffffffffffffffffffffffffffffffffffffffffffffffffffffffffff76859660018d013587528660205286600160408220828155015501608a8c0161325f565b60405192839160208301957f11cbf805000000000000000000000000000000000000000000000000000000008752602484015260018d01356044840152606060648401526084830190611859565b519082604e8a013560601c65ffffffffffff8a60301c16f11561245b575b6123d660a0946001947f9f9aef021b9656e38cd2086f7d7ee0f6b6062c8078a049bfecd6356fdbeb1b3c979473ffffffffffffffffffffffffffffffffffffffff61243395169283928160601c926bffffffffffffffffffffffff8260601c16926bffffffffffffffffffffffff65ffffffffffff8260301c1693169165ffffffffffff808316921690613b95565b9197907fb40655ff3c2bb146ef446b11cb0b22131f89ccd00240340eda5ef4e010794ea16040518061240e8d8a8a0135908784612d16565b0390a167ffffffffffffffff6fffffffffffffffffffffffffffffffff94859361255a565b996040519b8c528c60208d01521660408b0152166060890152166080870152013593a3611da3565b93905a65ffffffffffff603f818760301c160416116120e6579093612347565b846044916001604051927fe020885d000000000000000000000000000000000000000000000000000000008452013560048301526024820152fd5b6040517f862c57f400000000000000000000000000000000000000000000000000000000815267ffffffffffffffff9182166004820152429091166024820152604490fd5b5080156121e0565b60046040517fd41c17e7000000000000000000000000000000000000000000000000000000008152fd5b807f4e487b7100000000000000000000000000000000000000000000000000000000602492526032600452fd5b61257290602060405192828480945193849201611836565b810103902090565b92959493909573ffffffffffffffffffffffffffffffffffffffff60a4351660a4350361166b5773ffffffffffffffffffffffffffffffffffffffff60a4351615612c00573360005260026020526040600020846000526020526125e16040600020611772565b91825115612bd6577f000000000000000000000000000000000000000000000000000000000000000067ffffffffffffffff8116801515908180612bc4575b612b8c575080612b6b575b612b21575067ffffffffffffffff86168015159081612b16575b50612ad357612682612658368385611915565b867f0000000000000000000000000000000000000000000000000000000000000000438a33613ab2565b9788600052600060205260406000205460601c612aa95765ffffffffffff606435166064350361166b5760c435916bffffffffffffffffffffffff8316830361166b576bffffffffffffffffffffffff6126e68465ffffffffffff60643516611cdd565b1665ffffffffffff608435166084350361166b576bffffffffffffffffffffffff60e4351660e4350361166b5761273a906bffffffffffffffffffffffff61121860e43565ffffffffffff60843516611cdd565b978a600052600060205260406000207fffffffffffffffffffffffffffffffffffffffff00000000000000000000000060a43560601b1665ffffffffffff606435166bffffffffffff00000000000060843560301b16171781556bffffffffffffffffffffffff85167fffffffffffffffffffffffffffffffffffffffff00000000000000000000000060018301541617600182015561282360e43560018301907fffffffffffffffff000000000000000000000000ffffffffffffffffffffffff77ffffffffffffffffffffffff00000000000000000000000083549260601b169116179055565b67ffffffffffffffff6101043516610104350361166b57600101805477ffffffffffffffffffffffffffffffffffffffffffffffff167fffffffffffffffff0000000000000000000000000000000000000000000000006101043560c01b161790558a9482908861289333612d38565b956040519a8b9760208901600090528a60218a01528051908160418b0191602001916128be92611836565b8801916041830137019260c01b7fffffffffffffffff00000000000000000000000000000000000000000000000016604184015260643560d01b7fffffffffffff0000000000000000000000000000000000000000000000000000166049840152604f83013701604f81016000905203602f81018552604f016129419085611731565b61294a8361255a565b906040519086825260643565ffffffffffff16602083015260843565ffffffffffff16604083015260a43573ffffffffffffffffffffffffffffffffffffffff1660608301526bffffffffffffffffffffffff16608082015260e4356bffffffffffffffffffffffff1660a08201526101043567ffffffffffffffff1660c082015260e07f1b7379b49b96ce33cfd9daf95718231650c40a2c92da579412e588601186772791a36129fa92612e0a565b612a0391611d00565b6fffffffffffffffffffffffffffffffff9081811691823410612a58575050803411612a30575060009190565b3403612a548173ffffffffffffffffffffffffffffffffffffffff60a43516612f5a565b9190565b6040517f030748b50000000000000000000000000000000000000000000000000000000081526fffffffffffffffffffffffffffffffff928316600482015234919091169091166024820152604490fd5b60046040517f068a62ee000000000000000000000000000000000000000000000000000000008152fd5b6040517f2d098d5900000000000000000000000000000000000000000000000000000000815267ffffffffffffffff428116600483015287166024820152604490fd5b905042101538612645565b6040517f3c06f36900000000000000000000000000000000000000000000000000000000815267ffffffffffffffff42811692909201821660048201529087166024820152604490fd5b5067ffffffffffffffff81814216011667ffffffffffffffff88161161262b565b604490604051907f3c06f369000000000000000000000000000000000000000000000000000000008252600482015260006024820152fd5b5067ffffffffffffffff891615612620565b60046040517f9f994b4b000000000000000000000000000000000000000000000000000000008152fd5b60046040517f6a1a6afe000000000000000000000000000000000000000000000000000000008152fd5b9392918360211161166b578460005260016020526040600020602060405180928486833784820190815203019020600184013560005260205260406000205480158015612cdc575b612c94575091612c8c611d9d92611da39695943691611915565b923691611915565b604490612ca2368787611915565b60208151910120604051917f48ce7fac00000000000000000000000000000000000000000000000000000000835260048301526024820152fd5b50612ce8368686611915565b60208151910120811415612c72565b612d13949260609282526020820152816040820152019161189c565b90565b612d2e60409295949395606083526060830190611859565b9460208201520152565b73ffffffffffffffffffffffffffffffffffffffff604051917f1400000000000000000000000000000000000000000000000000000000000000602084015260006021840152166041820152604181526080810181811067ffffffffffffffff8211176117025760405290565b15612dac57565b60646040517f08c379a000000000000000000000000000000000000000000000000000000000815260206004820152601160248201527f436f6e74726163742044697361626c65640000000000000000000000000000006044820152fd5b612ed57f55d98696b252b788d21d4bb968cd6e13002c2a1fdda6f421bf95f58fea7dbdd193612e5273ffffffffffffffffffffffffffffffffffffffff600454161515612da5565b612eab606060405180937f00000000000000000000000000000000000000000000000000000000000000006020830152866040830152612e9b8151809260208686019101611836565b8101036040810184520182611731565b612ec76040519485948552606060208601526060850190611859565b908382036040850152611859565b0390a16006548060801c9081612ee9575090565b7fffffffffffffffffffffffffffffffff000000000000000000000000000000006fffffffffffffffffffffffffffffffff83818416011691161760065590565b3d15612f55573d90612f3b826118db565b91612f496040519384611731565b82523d6000602084013e565b606090565b81471061301457600080809373ffffffffffffffffffffffffffffffffffffffff8294165af1612f88612f2a565b5015612f9057565b60846040517f08c379a000000000000000000000000000000000000000000000000000000000815260206004820152603a60248201527f416464726573733a20756e61626c6520746f2073656e642076616c75652c207260448201527f6563697069656e74206d617920686176652072657665727465640000000000006064820152fd5b60646040517f08c379a000000000000000000000000000000000000000000000000000000000815260206004820152601d60248201527f416464726573733a20696e73756666696369656e742062616c616e63650000006044820152fd5b9291939073ffffffffffffffffffffffffffffffffffffffff60608582600454169361309f851515612da5565b8101031261166b5784359160ff831680930361166b5760809160208094604080996130cc8c8b3691611915565b84815191012092825193845284840152838101358284015201356060820152600094859182805260015afa1561325557825116036131f857838211610bda57845185810181811067ffffffffffffffff8211176131cb578087528382528388019336851161096357908189859385013752948460601161050e577f000000000000000000000000000000000000000000000000000000000000000081880135036131a2578410610bda57503593606001917fffffffffffffffffffffffffffffffffffffffffffffffffffffffffffffffa00190565b600490517f815e1d64000000000000000000000000000000000000000000000000000000008152fd5b6024837f4e487b710000000000000000000000000000000000000000000000000000000081526041600452fd5b6064828651907f08c379a00000000000000000000000000000000000000000000000000000000082526004820152600760248201527f217369676e6572000000000000000000000000000000000000000000000000006044820152fd5b86513d84823e3d90fd5b60216117b491939293846040519586927ffd000000000000000000000000000000000000000000000000000000000000006020850152848401378101600083820152036001810185520183611731565b916117b4947fffffffffffff000000000000000000000000000000000000000000000000000060b0957fffffffffffffffff000000000000000000000000000000000000000000000000939998949960416040519b8c987f010000000000000000000000000000000000000000000000000000000000000060208b015260218a01528189013760828701521660a28501521660a88301526133598151809260208686019101611836565b8101036090810185520183611731565b93919290948160211161166b578460005260016020526040600020602060405180928261339c8b84815193849201611836565b8201908152030190206001850135600052602052604060002054613a0957846000526001602052604060002060206040518092826133e08b84815193849201611836565b820190815203019020600185013560005260205260016040600020558160a31161166b57608f84013560601c8260621161166b5780600052600360205260406000208660005260205260406000205487516020890120036138fc578260ab1161166b5760a385013560c01c80151590816138f2575b506137ab578260b11161166b57600060405180927fd00689b600000000000000000000000000000000000000000000000000000000825288600483015260018801356024830152608060448301526041608483015260416021890160a48401378260e583015261010060648301528183816134fb61010482018c60b17fffffffffffffffffffffffffffffffffffffffffffffffffffffffffffffff4f8d01910161189c565b039260ab8b013560d01cf160009181613728575b506136ce575061351d612f2a565b505a65ffffffffffff603f60ab87013560d01c0416116120e6576136c061367b6001927f6025efc987827001c12f1f5c8b7831a6439083c88f60686671451fe479ec6e32957fffffffffffff000000000000000000000000000000000000000000000000000061364360209761363a604051917fff000000000000000000000000000000000000000000000000000000000000008b8401528c60b17fffffffffffffffffffffffffffffffffffffffffffffffffffffffffffffff4f8301910160218501378201827fffffffffffffffffffffffffffffffffffffffffffffffffffffffffffffff7091600083820152037fffffffffffffffffffffffffffffffffffffffffffffffffffffffffffffff50810184520182611731565b935b5a9061194c565b60d01b167fffffffffffffffff0000000000000000000000000000000000000000000000004260c01b169160218a01878b01356132af565b9687518489012087600052838552604060002085604051809285516136a38184868a01611836565b82019081520301902084880135600052855260406000205561255a565b93604051958652013593a390565b6020925061367b6001927f6025efc987827001c12f1f5c8b7831a6439083c88f60686671451fe479ec6e32957fffffffffffff00000000000000000000000000000000000000000000000000006136436136c0959361363c565b9091503d806000833e61373b8183611731565b81019060208183031261166b5780519067ffffffffffffffff821161166b5782601f83830101121561166b578181015190613775826118db565b936137836040519586611731565b82855260208385840101011161166b5760206137a493818601920101611836565b903861350f565b50508060b19592951161166b5760016136c07f6025efc987827001c12f1f5c8b7831a6439083c88f60686671451fe479ec6e32936138107fffffffffffffffffffffffffffffffffffffffffffffffffffffffffffffff4f6020950160b1880161325f565b976138cd60b0604051809b888201947f01000000000000000000000000000000000000000000000000000000000000008652888c01356021840152604160218d018185013760828301527f800000000000000000000000000000000000000000000000000000000000000060a28301527fffffffffffffffff0000000000000000000000000000000000000000000000004260c01b1660a88301526138bd815180928b8686019101611836565b810103609081018c52018a611731565b8851902087600052838552604060002085604051809285516136a38184868a01611836565b9050421138613455565b50908060b11161166b576136c061367b6001927f6025efc987827001c12f1f5c8b7831a6439083c88f60686671451fe479ec6e32957fffffffffffff000000000000000000000000000000000000000000000000000061364360209761363c604051957ffe000000000000000000000000000000000000000000000000000000000000008b8801528c60b17fffffffffffffffffffffffffffffffffffffffffffffffffffffffffffffff4f8301910160218901378601867fffffffffffffffffffffffffffffffffffffffffffffffffffffffffffffff7091600083820152037fffffffffffffffffffffffffffffffffffffffffffffffffffffffffffffff50810188520186611731565b60046040517fe954aba2000000000000000000000000000000000000000000000000000000008152fd5b73ffffffffffffffffffffffffffffffffffffffff600454163303613a5457565b60646040517f08c379a000000000000000000000000000000000000000000000000000000000815260206004820152602060248201527f4f776e61626c653a2063616c6c6572206973206e6f7420746865206f776e65726044820152fd5b9460b0929194613b56947fffffffffffffffffffffffffffffffffffffffff000000000000000000000000937fffffffffffffffff000000000000000000000000000000000000000000000000604051988996602088019b813060601b168d5260601b16603488015260c01b166048860152605085015260708401526090830152613b468151809260208686019101611836565b8101036090810184520182611731565b51902090565b8115613b66570490565b7f4e487b7100000000000000000000000000000000000000000000000000000000600052601260045260246000fd5b9297889299979496919965ffffffffffff809b81831692828216841115613d5e575b506bffffffffffffffffffffffff9b8c9283921602169b8c965a900399169489861115613d55575b8189168a029b8c998a890197021692021601918383039060008080808573ffffffffffffffffffffffffffffffffffffffff98898b8492149788613d4b575b1690f115613cf9575b5050811693811691828514613cd95750600080808086819681159788613cd0575bf115613c81575b50505060008080938193828215613c78575bf115613c6c57929190565b6040513d6000823e3d90fd5b506108fc613c61565b60009394508392839283928391613cc6575b7f00000000000000000000000000000000000000000000000000000000000000001690f115613c6c578390853880613c4f565b6108fc9150613c93565b506108fc613c48565b9050600094508493848094508093508215613c7857f115613c6c57929190565b600093975083929550829182918290613d42575b897f00000000000000000000000000000000000000000000000000000000000000001690f115613c6c57869388923880613c27565b506108fc613d0d565b6108fc9250613c1e565b98508498613bdf565b905038613bb7565b939791839b9993919a95979a65ffffffffffff809181841693828216851115613fbc575b506bffffffffffffffffffffffff9e8f938492160216965a90039a16928a841115613fb3575b818a168b029d8e88019a8b95021692021601958187039060008080808573ffffffffffffffffffffffffffffffffffffffff9c8d80998492149788613fa9575b1690f115613f5e575b5050809116981698888a14613f3c5767ffffffffffffffff809216918215613efd57829084958142160316036000811315600014613ed157613e3f935060000302613b5c565b019586915b600080808086819681159788613ec8575bf115613e7e575b5050600080838194938294039788918a849114613c7857f115613c6c57929190565b60008093819382938391613ebe575b7f00000000000000000000000000000000000000000000000000000000000000001690f115613c6c57843880613e5c565b6108fc9150613e8d565b506108fc613e55565b905081811015613eef57613ee59202613b5c565b9003958691613e44565b505050506000958691613e44565b50979390508794508198919250600080808086819681159788613cd057f115613c815750505060008080938193828215613c7857f115613c6c57929190565b9760008096925080955080945080939a508215613c7857f115613c6c57929190565b6000809350809281928290613fa0575b8a7f00000000000000000000000000000000000000000000000000000000000000001690f115613c6c57843880613df9565b506108fc613f6e565b6108fc9250613df0565b99508299613db0565b905038613d8a56fea264697066735822122085e2dd6058d1da8ec9322826c146f8335af150e74c0f5cb1a2d17bf5159146b164736f6c63430008160033","linkReferences":{}},"methodIdentifiers":{"MESSAGE_REVERTED()":"a28a469d","MESSAGE_TIMED_OUT()":"77124696","NO_AUTHENTICATION()":"a00d0798","SEND_LOST_GAS_TO()":"8dedc179","UNIQUE_SOURCE_IDENTIFIER()":"3ccb217e","acceptOwnership()":"79ba5097","accumulator()":"03381154","bounty(bytes32)":"2439909c","collectPayments()":"ce072163","convertEVMTo65(address)":"ea901f1a","estimateAdditionalCost()":"92006e73","implementationAddress(address,bytes32)":"4993ef33","implementationAddressHash(address,bytes32)":"dd6487fc","increaseBounty(bytes32,uint96,uint96)":"4487b9fc","messageDelivered(bytes32,bytes,bytes32)":"3a24ef35","owner()":"8da5cb5b","pendingOwner()":"e30c3978","processPacket(bytes,bytes,bytes32)":"53391d3f","proofValidPeriod(bytes32)":"5a640514","recoverAck(bytes,bytes)":"dfe1aef9","reemitAckMessage(bytes32,bytes,bytes)":"8caa89ec","renounceOwnership()":"715018a6","setRemoteImplementation(bytes32,bytes)":"ffbeacc7","submitMessage(bytes32,bytes,bytes,(uint48,uint48,address,uint96,uint96,uint64),uint64)":"65a686de","thisBytes65()":"daf1e167","timeoutMessage(bytes32,bytes,uint256,bytes)":"3fccfa06","transferOwnership(address)":"f2fde38b"},"id":43}